{
  "address": "0xe7f1725E7734CE288F8367e1Bb143E90bb3F0512",
  "abi": [
    {
      "inputs": [],
      "stateMutability": "nonpayable",
      "type": "constructor"
    },
    {
      "anonymous": false,
      "inputs": [
        {
          "indexed": true,
          "internalType": "address",
          "name": "owner",
          "type": "address"
        },
        {
          "indexed": true,
          "internalType": "address",
          "name": "approved",
          "type": "address"
        },
        {
          "indexed": true,
          "internalType": "uint256",
          "name": "tokenId",
          "type": "uint256"
        }
      ],
      "name": "Approval",
      "type": "event"
    },
    {
      "anonymous": false,
      "inputs": [
        {
          "indexed": true,
          "internalType": "address",
          "name": "owner",
          "type": "address"
        },
        {
          "indexed": true,
          "internalType": "address",
          "name": "operator",
          "type": "address"
        },
        {
          "indexed": false,
          "internalType": "bool",
          "name": "approved",
          "type": "bool"
        }
      ],
      "name": "ApprovalForAll",
      "type": "event"
    },
    {
      "anonymous": false,
      "inputs": [
        {
          "indexed": true,
          "internalType": "address",
          "name": "previousOwner",
          "type": "address"
        },
        {
          "indexed": true,
          "internalType": "address",
          "name": "newOwner",
          "type": "address"
        }
      ],
      "name": "OwnershipTransferred",
      "type": "event"
    },
    {
      "anonymous": false,
      "inputs": [
        {
          "indexed": true,
          "internalType": "address",
          "name": "from",
          "type": "address"
        },
        {
          "indexed": true,
          "internalType": "address",
          "name": "to",
          "type": "address"
        },
        {
          "indexed": true,
          "internalType": "uint256",
          "name": "tokenId",
          "type": "uint256"
        }
      ],
      "name": "Transfer",
      "type": "event"
    },
    {
      "inputs": [],
      "name": "MAX_TOKENS",
      "outputs": [
        {
          "internalType": "uint256",
          "name": "",
          "type": "uint256"
        }
      ],
      "stateMutability": "view",
      "type": "function"
    },
    {
      "inputs": [],
      "name": "THE_COLORS",
      "outputs": [
        {
          "internalType": "address",
          "name": "",
          "type": "address"
        }
      ],
      "stateMutability": "view",
      "type": "function"
    },
    {
      "inputs": [
        {
          "internalType": "address",
          "name": "to",
          "type": "address"
        },
        {
          "internalType": "uint256",
          "name": "tokenId",
          "type": "uint256"
        }
      ],
      "name": "approve",
      "outputs": [],
      "stateMutability": "nonpayable",
      "type": "function"
    },
    {
      "inputs": [
        {
          "internalType": "address",
          "name": "owner",
          "type": "address"
        }
      ],
      "name": "balanceOf",
      "outputs": [
        {
          "internalType": "uint256",
          "name": "",
          "type": "uint256"
        }
      ],
      "stateMutability": "view",
      "type": "function"
    },
    {
      "inputs": [
        {
          "internalType": "uint256",
          "name": "tokenId",
          "type": "uint256"
        }
      ],
      "name": "getApproved",
      "outputs": [
        {
          "internalType": "address",
          "name": "",
          "type": "address"
        }
      ],
      "stateMutability": "view",
      "type": "function"
    },
    {
      "inputs": [
        {
          "internalType": "uint256",
          "name": "tokenId",
          "type": "uint256"
        }
      ],
      "name": "getBase64TokenSVG",
      "outputs": [
        {
          "internalType": "string",
          "name": "",
          "type": "string"
        }
      ],
      "stateMutability": "view",
      "type": "function"
    },
    {
      "inputs": [
        {
          "internalType": "uint256",
          "name": "tokenId",
          "type": "uint256"
        }
      ],
      "name": "getTokenMetadata",
      "outputs": [
        {
          "internalType": "string",
          "name": "",
          "type": "string"
        }
      ],
      "stateMutability": "view",
      "type": "function"
    },
    {
      "inputs": [
        {
          "internalType": "uint256",
          "name": "tokenId",
          "type": "uint256"
        }
      ],
      "name": "getTokenSVG",
      "outputs": [
        {
          "internalType": "string",
          "name": "",
          "type": "string"
        }
      ],
      "stateMutability": "view",
      "type": "function"
    },
    {
      "inputs": [
        {
          "internalType": "address",
          "name": "owner",
          "type": "address"
        },
        {
          "internalType": "address",
          "name": "operator",
          "type": "address"
        }
      ],
      "name": "isApprovedForAll",
      "outputs": [
        {
          "internalType": "bool",
          "name": "",
          "type": "bool"
        }
      ],
      "stateMutability": "view",
      "type": "function"
    },
    {
      "inputs": [
        {
          "internalType": "uint16[]",
          "name": "colorTokenIds",
          "type": "uint16[]"
        }
      ],
      "name": "mint",
      "outputs": [],
      "stateMutability": "payable",
      "type": "function"
    },
    {
      "inputs": [
        {
          "internalType": "uint256",
          "name": "_mintAmount",
          "type": "uint256"
        },
        {
          "internalType": "uint16[]",
          "name": "colorTokenIds",
          "type": "uint16[]"
        }
      ],
      "name": "mintMany",
      "outputs": [],
      "stateMutability": "payable",
      "type": "function"
    },
    {
      "inputs": [],
      "name": "name",
      "outputs": [
        {
          "internalType": "string",
          "name": "",
          "type": "string"
        }
      ],
      "stateMutability": "view",
      "type": "function"
    },
    {
      "inputs": [],
      "name": "owner",
      "outputs": [
        {
          "internalType": "address",
          "name": "",
          "type": "address"
        }
      ],
      "stateMutability": "view",
      "type": "function"
    },
    {
      "inputs": [
        {
          "internalType": "uint256",
          "name": "tokenId",
          "type": "uint256"
        }
      ],
      "name": "ownerOf",
      "outputs": [
        {
          "internalType": "address",
          "name": "",
          "type": "address"
        }
      ],
      "stateMutability": "view",
      "type": "function"
    },
    {
      "inputs": [],
      "name": "renounceOwnership",
      "outputs": [],
      "stateMutability": "nonpayable",
      "type": "function"
    },
    {
      "inputs": [
        {
          "internalType": "address",
          "name": "from",
          "type": "address"
        },
        {
          "internalType": "address",
          "name": "to",
          "type": "address"
        },
        {
          "internalType": "uint256",
          "name": "tokenId",
          "type": "uint256"
        }
      ],
      "name": "safeTransferFrom",
      "outputs": [],
      "stateMutability": "nonpayable",
      "type": "function"
    },
    {
      "inputs": [
        {
          "internalType": "address",
          "name": "from",
          "type": "address"
        },
        {
          "internalType": "address",
          "name": "to",
          "type": "address"
        },
        {
          "internalType": "uint256",
          "name": "tokenId",
          "type": "uint256"
        },
        {
          "internalType": "bytes",
          "name": "_data",
          "type": "bytes"
        }
      ],
      "name": "safeTransferFrom",
      "outputs": [],
      "stateMutability": "nonpayable",
      "type": "function"
    },
    {
      "inputs": [
        {
          "internalType": "address",
          "name": "operator",
          "type": "address"
        },
        {
          "internalType": "bool",
          "name": "approved",
          "type": "bool"
        }
      ],
      "name": "setApprovalForAll",
      "outputs": [],
      "stateMutability": "nonpayable",
      "type": "function"
    },
    {
      "inputs": [
        {
          "internalType": "bytes4",
          "name": "interfaceId",
          "type": "bytes4"
        }
      ],
      "name": "supportsInterface",
      "outputs": [
        {
          "internalType": "bool",
          "name": "",
          "type": "bool"
        }
      ],
      "stateMutability": "view",
      "type": "function"
    },
    {
      "inputs": [],
      "name": "symbol",
      "outputs": [
        {
          "internalType": "string",
          "name": "",
          "type": "string"
        }
      ],
      "stateMutability": "view",
      "type": "function"
    },
    {
      "inputs": [
        {
          "internalType": "uint256",
          "name": "index",
          "type": "uint256"
        }
      ],
      "name": "tokenByIndex",
      "outputs": [
        {
          "internalType": "uint256",
          "name": "",
          "type": "uint256"
        }
      ],
      "stateMutability": "view",
      "type": "function"
    },
    {
      "inputs": [
        {
          "internalType": "address",
          "name": "owner",
          "type": "address"
        },
        {
          "internalType": "uint256",
          "name": "index",
          "type": "uint256"
        }
      ],
      "name": "tokenOfOwnerByIndex",
      "outputs": [
        {
          "internalType": "uint256",
          "name": "",
          "type": "uint256"
        }
      ],
      "stateMutability": "view",
      "type": "function"
    },
    {
      "inputs": [
        {
          "internalType": "uint256",
          "name": "tokenId",
          "type": "uint256"
        }
      ],
      "name": "tokenURI",
      "outputs": [
        {
          "internalType": "string",
          "name": "",
          "type": "string"
        }
      ],
      "stateMutability": "view",
      "type": "function"
    },
    {
      "inputs": [],
      "name": "totalSupply",
      "outputs": [
        {
          "internalType": "uint256",
          "name": "",
          "type": "uint256"
        }
      ],
      "stateMutability": "view",
      "type": "function"
    },
    {
      "inputs": [
        {
          "internalType": "address",
          "name": "from",
          "type": "address"
        },
        {
          "internalType": "address",
          "name": "to",
          "type": "address"
        },
        {
          "internalType": "uint256",
          "name": "tokenId",
          "type": "uint256"
        }
      ],
      "name": "transferFrom",
      "outputs": [],
      "stateMutability": "nonpayable",
      "type": "function"
    },
    {
      "inputs": [
        {
          "internalType": "address",
          "name": "newOwner",
          "type": "address"
        }
      ],
      "name": "transferOwnership",
      "outputs": [],
      "stateMutability": "nonpayable",
      "type": "function"
    },
    {
      "inputs": [
        {
          "internalType": "uint256",
          "name": "tokenId",
          "type": "uint256"
        },
        {
          "internalType": "uint16[]",
          "name": "colorTokenIds",
          "type": "uint16[]"
        }
      ],
      "name": "updateColors",
      "outputs": [],
      "stateMutability": "payable",
      "type": "function"
    },
    {
      "inputs": [],
      "name": "withdraw",
      "outputs": [],
      "stateMutability": "payable",
      "type": "function"
    }
  ],
  "transactionHash": "0xc1125d16c3f2dd3baf553b25b4c1069b13c13172f84884a7f55df687fa296848",
  "args": [],
  "solcInputHash": "e5fc3c7feaa696fb93b2523e5bfd95ac",
  "bytecode": "0x60806040523480156200001157600080fd5b50604080518082018252600d81526c53796e63207820436f6c6f727360981b60208083019182528351808501909452600984526853594e43204265746160b81b9084015281519192916200006891600091620000fc565b5080516200007e906001906020840190620000fc565b5050506200009b62000095620000a660201b60201c565b620000aa565b6001600b55620001df565b3390565b600a80546001600160a01b038381166001600160a01b0319831681179093556040519116919082907f8be0079c531659141344cd1fd0a4f28419497f9722a3daafe3b4186f6b6457e090600090a35050565b8280546200010a90620001a2565b90600052602060002090601f0160209004810192826200012e576000855562000179565b82601f106200014957805160ff191683800117855562000179565b8280016001018555821562000179579182015b82811115620001795782518255916020019190600101906200015c565b50620001879291506200018b565b5090565b5b808211156200018757600081556001016200018c565b600181811c90821680620001b757607f821691505b60208210811415620001d957634e487b7160e01b600052602260045260246000fd5b50919050565b615f3c80620001ef6000396000f3fe6080604052600436106101475760003560e01c806301ffc9a71461014c57806306fdde0314610181578063081812fc146101a3578063095ea7b3146101db5780630c1f529a146101fd57806318160ddd1461021057806323b872dd1461022f5780632f745c591461024f5780633ccfd60b1461026f57806342842e0e146102775780634f6ccce71461029757806360316801146102b75780636352211e146102d757806370a08231146102f7578063715018a6146103175780638da5cb5b1461032c57806395d89b41146103415780639c5e92fb14610356578063a22cb46514610369578063b88d4fde14610389578063c7ab2dbc146103a9578063c87b56dd146103c9578063c8f8b613146103e9578063ce02f82314610411578063deba081314610431578063e985e9c514610444578063f2fde38b14610464578063f47c84c514610484575b600080fd5b34801561015857600080fd5b5061016c610167366004613f54565b61049a565b60405190151581526020015b60405180910390f35b34801561018d57600080fd5b506101966104c5565b60405161017891906159d1565b3480156101af57600080fd5b506101c36101be366004614020565b610557565b6040516001600160a01b039091168152602001610178565b3480156101e757600080fd5b506101fb6101f6366004613eea565b6105e4565b005b6101fb61020b366004614038565b6106f5565b34801561021c57600080fd5b506008545b604051908152602001610178565b34801561023b57600080fd5b506101fb61024a366004613dd3565b6108d4565b34801561025b57600080fd5b5061022161026a366004613eea565b610905565b6101fb61099b565b34801561028357600080fd5b506101fb610292366004613dd3565b610b1c565b3480156102a357600080fd5b506102216102b2366004614020565b610b37565b3480156102c357600080fd5b506101966102d2366004614020565b610bd8565b3480156102e357600080fd5b506101c36102f2366004614020565b610c60565b34801561030357600080fd5b50610221610312366004613d63565b610cd7565b34801561032357600080fd5b506101fb610d5e565b34801561033857600080fd5b506101c3610d99565b34801561034d57600080fd5b50610196610da8565b6101fb610364366004613f15565b610db7565b34801561037557600080fd5b506101fb610384366004613eb9565b610ec5565b34801561039557600080fd5b506101fb6103a4366004613e13565b610ed4565b3480156103b557600080fd5b506101966103c4366004614020565b610f0c565b3480156103d557600080fd5b506101966103e4366004614020565b610f51565b3480156103f557600080fd5b506101c3735fbdb2315678afecb367f032d93f642f64180aa381565b34801561041d57600080fd5b5061019661042c366004614020565b611006565b6101fb61043f366004614038565b61105c565b34801561045057600080fd5b5061016c61045f366004613d9b565b611151565b34801561047057600080fd5b506101fb61047f366004613d63565b61117f565b34801561049057600080fd5b50610221610d0581565b60006001600160e01b0319821663780e9d6360e01b14806104bf57506104bf8261121f565b92915050565b6060600080546104d490615d2f565b80601f016020809104026020016040519081016040528092919081815260200182805461050090615d2f565b801561054d5780601f106105225761010080835404028352916020019161054d565b820191906000526020600020905b81548152906001019060200180831161053057829003601f168201915b5050505050905090565b60006105628261126f565b6105c85760405162461bcd60e51b815260206004820152602c60248201527f4552433732313a20617070726f76656420717565727920666f72206e6f6e657860448201526b34b9ba32b73a103a37b5b2b760a11b60648201526084015b60405180910390fd5b506000908152600460205260409020546001600160a01b031690565b60006105ef82610c60565b9050806001600160a01b0316836001600160a01b0316141561065d5760405162461bcd60e51b815260206004820152602160248201527f4552433732313a20617070726f76616c20746f2063757272656e74206f776e656044820152603960f91b60648201526084016105bf565b336001600160a01b038216148061067957506106798133611151565b6106e65760405162461bcd60e51b815260206004820152603860248201527f4552433732313a20617070726f76652063616c6c6572206973206e6f74206f776044820152771b995c881b9bdc88185c1c1c9bdd995908199bdc88185b1b60421b60648201526084016105bf565b6106f0838361128c565b505050565b6002600b5414156107185760405162461bcd60e51b81526004016105bf90615b93565b6002600b55600061072860085490565b9050600a8411156107705760405162461bcd60e51b815260206004820152601260248201527109ac2f040dad2dce840626040e0cae440e8f60731b60448201526064016105bf565b600084116107b55760405162461bcd60e51b815260206004820152601260248201527104d696e742073686f756c64206265203e20360741b60448201526064016105bf565b610d056107c68561ffff8416615c56565b11156107e45760405162461bcd60e51b81526004016105bf906159e4565b60038211156108055760405162461bcd60e51b81526004016105bf90615b5c565b61081684668e1bc9bf040000615ccd565b3410156108355760405162461bcd60e51b81526004016105bf90615aaa565b61083f83836112fa565b15156001146108605760405162461bcd60e51b81526004016105bf90615bca565b61ffff81165b6108748561ffff8416615c56565b8110156108c8576000818152600c60205260409020610894908585613c0f565b5061089e81611411565b6000828152600d60205260409020556108b68161148a565b806108c081615d6a565b915050610866565b50506001600b55505050565b6108de3382611494565b6108fa5760405162461bcd60e51b81526004016105bf90615b0b565b6106f0838383611511565b600061091083610cd7565b82106109725760405162461bcd60e51b815260206004820152602b60248201527f455243373231456e756d657261626c653a206f776e657220696e646578206f7560448201526a74206f6620626f756e647360a81b60648201526084016105bf565b506001600160a01b03919091166000908152600660209081526040808320938352929052205490565b6002600b5414156109be5760405162461bcd60e51b81526004016105bf90615b93565b6002600b55336109cc610d99565b6001600160a01b0316146109f25760405162461bcd60e51b81526004016105bf90615ad6565b4760006064610a02836021615ccd565b610a0c9190615c8f565b905060006101f4610a1e846043615ccd565b610a289190615c8f565b905060006101f4610a3a856043615ccd565b610a449190615c8f565b905060006101f4610a56866043615ccd565b610a609190615c8f565b905060006101f4610a72876043615ccd565b610a7c9190615c8f565b905060006101f4610a8e886043615ccd565b610a989190615c8f565b6040519091507348ae900e9df45441b2001db4da92ce0e7c08c6d29087156108fc029088906000818181858888f19350505050158015610adc573d6000803e3d6000fd5b50604051479750339088156108fc029089906000818181858888f19350505050158015610b0d573d6000803e3d6000fd5b50506001600b55505050505050565b6106f083838360405180602001604052806000815250610ed4565b6000610b4260085490565b8210610ba55760405162461bcd60e51b815260206004820152602c60248201527f455243373231456e756d657261626c653a20676c6f62616c20696e646578206f60448201526b7574206f6620626f756e647360a01b60648201526084016105bf565b60088281548110610bc657634e487b7160e01b600052603260045260246000fd5b90600052602060002001549050919050565b6060610be38261126f565b610bff5760405162461bcd60e51b81526004016105bf90615a5e565b6000610c0a836116aa565b90506000610c20610c1b8584611a7b565b6125cd565b905080610c2c85612740565b610c368685612771565b604051602001610c4893929190615028565b60405160208183030381529060405292505050919050565b6000818152600260205260408120546001600160a01b0316806104bf5760405162461bcd60e51b815260206004820152602960248201527f4552433732313a206f776e657220717565727920666f72206e6f6e657869737460448201526832b73a103a37b5b2b760b91b60648201526084016105bf565b60006001600160a01b038216610d425760405162461bcd60e51b815260206004820152602a60248201527f4552433732313a2062616c616e636520717565727920666f7220746865207a65604482015269726f206164647265737360b01b60648201526084016105bf565b506001600160a01b031660009081526003602052604090205490565b33610d67610d99565b6001600160a01b031614610d8d5760405162461bcd60e51b81526004016105bf90615ad6565b610d976000612883565b565b600a546001600160a01b031690565b6060600180546104d490615d2f565b6002600b541415610dda5760405162461bcd60e51b81526004016105bf90615b93565b6002600b556000610dea60085490565b9050610d058110610e0d5760405162461bcd60e51b81526004016105bf906159e4565b6003821115610e2e5760405162461bcd60e51b81526004016105bf90615b5c565b668e1bc9bf040000341015610e555760405162461bcd60e51b81526004016105bf90615aaa565b610e5f83836112fa565b1515600114610e805760405162461bcd60e51b81526004016105bf90615bca565b6000818152600c60205260409020610e99908484613c0f565b50610ea381611411565b6000828152600d6020526040902055610ebb8161148a565b50506001600b5550565b610ed03383836128d5565b5050565b610ede3383611494565b610efa5760405162461bcd60e51b81526004016105bf90615b0b565b610f06848484846129a0565b50505050565b6060610f178261126f565b610f335760405162461bcd60e51b81526004016105bf90615a5e565b6000610f3e836116aa565b9050610f4a8382611a7b565b9392505050565b6060610f5c8261126f565b610f785760405162461bcd60e51b81526004016105bf90615a5e565b6000610f83836116aa565b90506000610f918483611a7b565b90506000610f9e826125cd565b9050610fdd81610fad87612740565b610fb78887612771565b604051602001610fc9939291906152c7565b6040516020818303038152906040526125cd565b604051602001610fed919061536c565b6040516020818303038152906040529350505050919050565b60606110118261126f565b61102d5760405162461bcd60e51b81526004016105bf90615a5e565b6000611038836116aa565b90506000611049610c1b8584611a7b565b905080604051602001610c4891906153b1565b61106583610c60565b6001600160a01b0316336001600160a01b0316146110c55760405162461bcd60e51b815260206004820181905260248201527f4f6e6c79204e465420686f6c6465722063616e20757064617465436f6c6f727360448201526064016105bf565b60038111156110e65760405162461bcd60e51b81526004016105bf90615b5c565b6611c37937e0800034101561110d5760405162461bcd60e51b81526004016105bf90615aaa565b61111782826112fa565b15156001146111385760405162461bcd60e51b81526004016105bf90615bca565b6000838152600c60205260409020610f06908383613c0f565b6001600160a01b03918216600090815260056020908152604080832093909416825291909152205460ff1690565b33611188610d99565b6001600160a01b0316146111ae5760405162461bcd60e51b81526004016105bf90615ad6565b6001600160a01b0381166112135760405162461bcd60e51b815260206004820152602660248201527f4f776e61626c653a206e6577206f776e657220697320746865207a65726f206160448201526564647265737360d01b60648201526084016105bf565b61121c81612883565b50565b60006001600160e01b031982166380ac58cd60e01b148061125057506001600160e01b03198216635b5e139f60e01b145b806104bf57506301ffc9a760e01b6001600160e01b03198316146104bf565b6000908152600260205260409020546001600160a01b0316151590565b600081815260046020526040902080546001600160a01b0319166001600160a01b03841690811790915581906112c182610c60565b6001600160a01b03167f8c5be1e5ebec7d5bd14f71427d1e84f3dd0314c0f7b2291e5b200ac8c7c3b92560405160405180910390a45050565b6000735fbdb2315678afecb367f032d93f642f64180aa3815b8381101561140657816001600160a01b0316636352211e86868481811061134a57634e487b7160e01b600052603260045260246000fd5b905060200201602081019061135f9190613ffe565b61ffff166040518263ffffffff1660e01b815260040161138191815260200190565b60206040518083038186803b15801561139957600080fd5b505afa1580156113ad573d6000803e3d6000fd5b505050506040513d601f19601f820116820180604052508101906113d19190613d7f565b6001600160a01b0316336001600160a01b0316146113f4576000925050506104bf565b806113fe81615d6a565b915050611313565b506001949350505050565b60008061141f836001615c56565b9050735fbdb2315678afecb367f032d93f642f64180aa36114408183615ccd565b611449836129d3565b42448460405160200161145f94939291906143fe565b6040516020818303038152906040528051906020012060001c6114829190615c56565b949350505050565b61121c3382612aec565b600061149f8261126f565b6114bb5760405162461bcd60e51b81526004016105bf90615a5e565b60006114c683610c60565b9050806001600160a01b0316846001600160a01b031614806115015750836001600160a01b03166114f684610557565b6001600160a01b0316145b8061148257506114828185611151565b826001600160a01b031661152482610c60565b6001600160a01b03161461158c5760405162461bcd60e51b815260206004820152602960248201527f4552433732313a207472616e73666572206f6620746f6b656e2074686174206960448201526839903737ba1037bbb760b91b60648201526084016105bf565b6001600160a01b0382166115ee5760405162461bcd60e51b8152602060048201526024808201527f4552433732313a207472616e7366657220746f20746865207a65726f206164646044820152637265737360e01b60648201526084016105bf565b6115f9838383612b06565b61160460008261128c565b6001600160a01b038316600090815260036020526040812080546001929061162d908490615cec565b90915550506001600160a01b038216600090815260036020526040812080546001929061165b908490615c56565b909155505060008181526002602052604080822080546001600160a01b0319166001600160a01b038681169182179092559151849391871691600080516020615ec783398151915291a4505050565b6116b2613cbc565b6116ba613cbc565b6000838152600d602052604090819020548151600f808252610200820190935290918160200160208202803683375050506040838101919091528051600f808252610200820190925290602082016101e080368337505050606083015260408051600f808252610200820190925290602082016101e08036833750505060a083015260408051600f808252610200820190925290602082016101e080368337505050608083015260408051600f808252610200820190925290602082016101e08036833750505060c083015260408051600f808252610200820190925290602082016101e08036833701905050602083015260408051600f80825261020082019092529081602001602082028036833750505082526117e26103e86103ff60701b8316615d85565b6117ed906001615c56565b61ffff1660e083015260005b600f811015611a72576118126101f46103ff8416615d85565b61181d906001615c56565b8360400151828151811061184157634e487b7160e01b600052603260045260246000fd5b61ffff909216602092830291909101909101526101f461186860106303ff00008516615c8f565b6118729190615d85565b61187d906001615c56565b836060015182815181106118a157634e487b7160e01b600052603260045260246000fd5b61ffff9092166020928302919091018201526097906118c7906101ff60201b8516615c8f565b6118d19190615d85565b6118dc9060fa615c56565b8360a00151828151811061190057634e487b7160e01b600052603260045260246000fd5b61ffff9092166020928302919091019091015261192660976101ff603085901c16615d85565b6119319060fa615c56565b8360800151828151811061195557634e487b7160e01b600052603260045260246000fd5b61ffff9092166020928302919091019091015261016861197d60406101ff60401b8516615c8f565b6119879190615d85565b611992906001615c56565b8360c0015182815181106119b657634e487b7160e01b600052603260045260246000fd5b61ffff909216602092830291909101909101526119dc60026101ff605085901c16615d85565b83602001518281518110611a0057634e487b7160e01b600052603260045260246000fd5b60ff90921660209283029190910190910152611a2560036101ff606085901c16615d85565b8351805183908110611a4757634e487b7160e01b600052603260045260246000fd5b60ff9092166020928302919091019091015260029190911c9080611a6a81615d6a565b9150506117f9565b50909392505050565b60606000611a8884612bbe565b6040805160038082526080820190925291925060009190816020015b6060815260200190600190039081611aa45750506040805160038082526080820190925291925060009190602082015b6060815260200190600190039081611ad45750506040805160038082526080820190925291925060009190602082015b6060815260200190600190039081611b04579050509050606060005b6003811015611c2b57858181518110611b4957634e487b7160e01b600052603260045260246000fd5b6020026020010151858281518110611b7157634e487b7160e01b600052603260045260246000fd5b6020026020010181905250858181518110611b9c57634e487b7160e01b600052603260045260246000fd5b6020026020010151848281518110611bc457634e487b7160e01b600052603260045260246000fd5b602002602001018190525060405180604001604052806005815260200164776869746560d81b815250838281518110611c0d57634e487b7160e01b600052603260045260246000fd5b60200260200101819052508080611c2390615d6a565b915050611b20565b506102bc8760e0015161ffff1610611ff45760405180604001604052806007815260200166434f4e4341564560c81b8152509050604051806040016040528060078152602001660233231344637360cc1b81525084600081518110611ca057634e487b7160e01b600052603260045260246000fd5b602002602001018190525060405180604001604052806007815260200166119922992299a360c91b81525084600181518110611cec57634e487b7160e01b600052603260045260246000fd5b602002602001018190525060405180604001604052806007815260200166119922992299a360c91b81525084600281518110611d3857634e487b7160e01b600052603260045260246000fd5b6020026020010181905250604051806040016040528060078152602001660234641463743360cc1b81525083600081518110611d8457634e487b7160e01b600052603260045260246000fd5b6020026020010181905250604051806040016040528060078152602001660233231344637360cc1b81525083600181518110611dd057634e487b7160e01b600052603260045260246000fd5b6020026020010181905250604051806040016040528060078152602001660234641463743360cc1b81525083600281518110611e1c57634e487b7160e01b600052603260045260246000fd5b6020026020010181905250604051806040016040528060078152602001660234641463743360cc1b81525082600081518110611e6857634e487b7160e01b600052603260045260246000fd5b6020026020010181905250604051806040016040528060078152602001660234641463743360cc1b81525082600181518110611eb457634e487b7160e01b600052603260045260246000fd5b6020026020010181905250604051806040016040528060078152602001660234641463743360cc1b81525082600281518110611f0057634e487b7160e01b600052603260045260246000fd5b6020026020010181905250604051806040016040528060078152602001660234641463743360cc1b81525085600081518110611f4c57634e487b7160e01b600052603260045260246000fd5b6020026020010181905250604051806040016040528060078152602001660234641463743360cc1b81525085600181518110611f9857634e487b7160e01b600052603260045260246000fd5b6020026020010181905250604051806040016040528060078152602001660234641463743360cc1b81525085600281518110611fe457634e487b7160e01b600052603260045260246000fd5b602002602001018190525061255f565b6101908760e0015161ffff16106121f2576040518060400160405280600481526020016311d3d31160e21b81525090506040518060400160405280600781526020016611a1a21ba3199960c91b8152508460008151811061206557634e487b7160e01b600052603260045260246000fd5b60200260200101819052506040518060400160405280600781526020016611a29aa29a229960c91b815250846001815181106120b157634e487b7160e01b600052603260045260246000fd5b6020026020010181905250604051806040016040528060078152602001660466e646ac862760cb1b815250846002815181106120fd57634e487b7160e01b600052603260045260246000fd5b602002602001018190525060405180604001604052806005815260200164626c61636b60d81b8152508360008151811061214757634e487b7160e01b600052603260045260246000fd5b6020026020010181905250604051806040016040528060078152602001660234330433043360cc1b8152508360018151811061219357634e487b7160e01b600052603260045260246000fd5b60200260200101819052506040518060400160405280600781526020016611a29aa29a229960c91b815250836002815181106121df57634e487b7160e01b600052603260045260246000fd5b602002602001018190525083945061255f565b61012c8760e0015161ffff1610612429576040518060400160405280600681526020016529a4a62b22a960d11b815250905060405180604001604052806005815260200164626c61636b60d81b8152508260008151811061226357634e487b7160e01b600052603260045260246000fd5b6020026020010181905250604051806040016040528060078152602001660236330633063360cc1b815250846000815181106122af57634e487b7160e01b600052603260045260246000fd5b60200260200101819052506040518060400160405280600781526020016611b29ab29a329960c91b815250846001815181106122fb57634e487b7160e01b600052603260045260246000fd5b6020026020010181905250604051806040016040528060078152602001660236330633063360cc1b8152508460028151811061234757634e487b7160e01b600052603260045260246000fd5b602002602001018190525060405180604001604052806005815260200164776869746560d81b8152508360008151811061239157634e487b7160e01b600052603260045260246000fd5b6020026020010181905250604051806040016040528060078152602001660234330433043360cc1b815250836001815181106123dd57634e487b7160e01b600052603260045260246000fd5b60200260200101819052506040518060400160405280600781526020016611a1a21ba3199960c91b815250836002815181106121df57634e487b7160e01b600052603260045260246000fd5b60648760e0015161ffff161061255f576040518060400160405280600b81526020016a1513d2d653c8111492519560aa1b81525090508460008151811061248057634e487b7160e01b600052603260045260246000fd5b6020026020010151826000815181106124a957634e487b7160e01b600052603260045260246000fd5b6020026020010181905250846001815181106124d557634e487b7160e01b600052603260045260246000fd5b6020026020010151826001815181106124fe57634e487b7160e01b600052603260045260246000fd5b60200260200101819052508460028151811061252a57634e487b7160e01b600052603260045260246000fd5b60200260200101518260028151811061255357634e487b7160e01b600052603260045260246000fd5b60200260200101819052505b600061256b8589612e79565b90506000612578856131e5565b90506000612586888b61335e565b9050600061259486866134e2565b9050838383836040516020016125ad949392919061442d565b604051602081830303815290604052995050505050505050505092915050565b60608151600014156125ed57505060408051602081019091526000815290565b6000604051806060016040528060408152602001615e67604091399050600060038451600261261c9190615c56565b6126269190615c8f565b612631906004615ccd565b90506000612640826020615c56565b6001600160401b0381111561266557634e487b7160e01b600052604160045260246000fd5b6040519080825280601f01601f19166020018201604052801561268f576020820181803683370190505b509050818152600183018586518101602084015b818310156126fb576003830192508251603f8160121c168501518253600182019150603f81600c1c168501518253600182019150603f8160061c168501518253600182019150603f81168501518253506001016126a3565b600389510660018114612715576002811461272657612732565b613d3d60f01b600119830152612732565b603d60f81b6000198301525b509398975050505050505050565b606061274b826129d3565b60405160200161275b9190614eff565b6040516020818303038152906040529050919050565b606060006040518060400160405280600681526020016521b7b6b6b7b760d11b81525090506103de8360e0015161ffff16106127c8575060408051808201909152600481526311dbdb1960e21b602082015261282b565b6103b68360e0015161ffff16106127fc575060408051808201909152600681526529b4b63b32b960d11b602082015261282b565b6103528360e0015161ffff161061282b5750604080518082019091526005815264111c9a599d60da1b60208201525b60008161283786613623565b6040516020016128489291906158e9565b60405160208183030381529060405290508060405160200161286a91906141a2565b6040516020818303038152906040529250505092915050565b600a80546001600160a01b038381166001600160a01b0319831681179093556040519116919082907f8be0079c531659141344cd1fd0a4f28419497f9722a3daafe3b4186f6b6457e090600090a35050565b816001600160a01b0316836001600160a01b031614156129335760405162461bcd60e51b815260206004820152601960248201527822a9219b99189d1030b8383937bb32903a379031b0b63632b960391b60448201526064016105bf565b6001600160a01b03838116600081815260056020908152604080832094871680845294825291829020805460ff191686151590811790915591519182527f17307eab39ab6107e8899845ad3d59bd9653f200f220920489ca2b5937696c31910160405180910390a3505050565b6129ab848484611511565b6129b7848484846137f4565b610f065760405162461bcd60e51b81526004016105bf90615a0c565b6060816129f75750506040805180820190915260018152600360fc1b602082015290565b8160005b8115612a215780612a0b81615d6a565b9150612a1a9050600a83615c8f565b91506129fb565b6000816001600160401b03811115612a4957634e487b7160e01b600052604160045260246000fd5b6040519080825280601f01601f191660200182016040528015612a73576020820181803683370190505b5090505b841561148257612a88600183615cec565b9150612a95600a86615d85565b612aa0906030615c56565b60f81b818381518110612ac357634e487b7160e01b600052603260045260246000fd5b60200101906001600160f81b031916908160001a905350612ae5600a86615c8f565b9450612a77565b610ed08282604051806020016040528060008152506138f6565b6001600160a01b038316612b6157612b5c81600880546000838152600960205260408120829055600182018355919091527ff3f7a9fe364faab93b216da50a3214154f22a0a2b415b23a84c8169e8b636ee30155565b612b84565b816001600160a01b0316836001600160a01b031614612b8457612b848382613929565b6001600160a01b038216612b9b576106f0816139c6565b826001600160a01b0316826001600160a01b0316146106f0576106f08282613a9f565b6000818152600c60209081526040808320805482518185028101850190935280835260609493830182828015612c3b57602002820191906000526020600020906000905b82829054906101000a900461ffff1661ffff1681526020019060020190602082600101049283019260010382029150808411612c025790505b5050506000868152600c602052604080822054815160038082526080820190935295965094919350909150816020015b6060815260200190600190039081612c6b579050509050604051806040016040528060078152602001661199191919191960c91b81525081600081518110612cc357634e487b7160e01b600052603260045260246000fd5b6020026020010181905250604051806040016040528060078152602001662337373737373760c81b81525081600181518110612d0f57634e487b7160e01b600052603260045260246000fd5b6020026020010181905250604051806040016040528060078152602001662341414141414160c81b81525081600281518110612d5b57634e487b7160e01b600052603260045260246000fd5b602002602001018190525060005b82811015612e7057735fbdb2315678afecb367f032d93f642f64180aa36001600160a01b031663e01c8fa1858381518110612db457634e487b7160e01b600052603260045260246000fd5b602002602001015161ffff166040518263ffffffff1660e01b8152600401612dde91815260200190565b60006040518083038186803b158015612df657600080fd5b505afa158015612e0a573d6000803e3d6000fd5b505050506040513d6000823e601f3d908101601f19168201604052612e329190810190613f8c565b828281518110612e5257634e487b7160e01b600052603260045260246000fd5b60200260200101819052508080612e6890615d6a565b915050612d69565b50949350505050565b6040805180820190915260168152751e33903334b63616b7b830b1b4ba3c9e91181719911f60511b60208201526060908160005b600f8110156131d35784602001518181518110612eda57634e487b7160e01b600052603260045260246000fd5b602002602001015160ff1660001415612ff2578585600001518281518110612f1257634e487b7160e01b600052603260045260246000fd5b602002602001015160ff1681518110612f3b57634e487b7160e01b600052603260045260246000fd5b6020026020010151612f7b86604001518381518110612f6a57634e487b7160e01b600052603260045260246000fd5b602002602001015161ffff166129d3565b612fa287606001518481518110612f6a57634e487b7160e01b600052603260045260246000fd5b612fc98860a001518581518110612f6a57634e487b7160e01b600052603260045260246000fd5b604051602001612fdc949392919061520c565b604051602081830303815290604052915061319c565b8460200151818151811061301657634e487b7160e01b600052603260045260246000fd5b602002602001015160ff166001141561319c57858560000151828151811061304e57634e487b7160e01b600052603260045260246000fd5b602002602001015160ff168151811061307757634e487b7160e01b600052603260045260246000fd5b60200260200101516130c36002876040015184815181106130a857634e487b7160e01b600052603260045260246000fd5b60200260200101516130ba9190615c6e565b61ffff166129d3565b6130ec6002886060015185815181106130a857634e487b7160e01b600052603260045260246000fd5b6131278860a00151858151811061311357634e487b7160e01b600052603260045260246000fd5b602002602001015160026130ba9190615ca3565b61314e8960800151868151811061311357634e487b7160e01b600052603260045260246000fd5b6131758a60c001518781518110612f6a57634e487b7160e01b600052603260045260246000fd5b60405160200161318a969594939291906150f7565b60405160208183030381529060405291505b82826040516020016131af9291906141be565b604051602081830303815290604052925080806131cb90615d6a565b915050612ead565b508160405160200161286a919061439b565b606060008260008151811061320a57634e487b7160e01b600052603260045260246000fd5b60200260200101518360018151811061323357634e487b7160e01b600052603260045260246000fd5b60200260200101518460008151811061325c57634e487b7160e01b600052603260045260246000fd5b6020026020010151604051602001613276939291906157af565b60405160208183030381529060405290506000604051602001613298906153f5565b60405160208183030381529060405290506000846002815181106132cc57634e487b7160e01b600052603260045260246000fd5b6020026020010151856000815181106132f557634e487b7160e01b600052603260045260246000fd5b60200260200101518660028151811061331e57634e487b7160e01b600052603260045260246000fd5b60200260200101516040516020016133389392919061556b565b6040516020818303038152906040529050828282604051602001610fed939291906141ed565b606060008360008151811061338357634e487b7160e01b600052603260045260246000fd5b6020026020010151846001815181106133ac57634e487b7160e01b600052603260045260246000fd5b6020026020010151856002815181106133d557634e487b7160e01b600052603260045260246000fd5b60200260200101516040516020016133ef9392919061455a565b604051602081830303815290604052905061012c8360e0015161ffff1610610f4a57808460008151811061343357634e487b7160e01b600052603260045260246000fd5b60200260200101518560018151811061345c57634e487b7160e01b600052603260045260246000fd5b60200260200101518660028151811061348557634e487b7160e01b600052603260045260246000fd5b6020026020010151876000815181106134ae57634e487b7160e01b600052603260045260246000fd5b60200260200101516040516020016134ca959493929190614230565b60405160208183030381529060405290509392505050565b606060008360008151811061350757634e487b7160e01b600052603260045260246000fd5b6020026020010151838560008151811061353157634e487b7160e01b600052603260045260246000fd5b602002602001015160405160200161354b93929190614c38565b604051602081830303815290604052905060008460018151811061357f57634e487b7160e01b600052603260045260246000fd5b6020026020010151604051602001613597919061481c565b60405160208183030381529060405290506000856002815181106135cb57634e487b7160e01b600052603260045260246000fd5b60200260200101516040516020016135e39190614a03565b6040516020818303038152906040529050828282604051602001613609939291906141ed565b604051602081830303815290604052935050505092915050565b6000818152600c602090815260408083208054825181850281018501909352808352606094938301828280156136a057602002820191906000526020600020906000905b82829054906101000a900461ffff1661ffff16815260200190600201906020826001010492830192600103820291508084116136675790505b5050506000868152600c60205260408120549394506060925090505b82811015612e70578381815181106136e457634e487b7160e01b600052603260045260246000fd5b602002602001015161ffff16600014156136fd57612e70565b81735fbdb2315678afecb367f032d93f642f64180aa36001600160a01b031663e01c8fa186848151811061374157634e487b7160e01b600052603260045260246000fd5b602002602001015161ffff166040518263ffffffff1660e01b815260040161376b91815260200190565b60006040518083038186803b15801561378357600080fd5b505afa158015613797573d6000803e3d6000fd5b505050506040513d6000823e601f3d908101601f191682016040526137bf9190810190613f8c565b6040516020016137d09291906143c3565b604051602081830303815290604052915080806137ec90615d6a565b9150506136bc565b60006001600160a01b0384163b1561140657604051630a85bd0160e11b81526001600160a01b0385169063150b7a029061383890339089908890889060040161599e565b602060405180830381600087803b15801561385257600080fd5b505af1925050508015613882575060408051601f3d908101601f1916820190925261387f91810190613f70565b60015b6138dc573d8080156138b0576040519150601f19603f3d011682016040523d82523d6000602084013e6138b5565b606091505b5080516138d45760405162461bcd60e51b81526004016105bf90615a0c565b805181602001fd5b6001600160e01b031916630a85bd0160e11b149050611482565b6139008383613ae3565b61390d60008484846137f4565b6106f05760405162461bcd60e51b81526004016105bf90615a0c565b6000600161393684610cd7565b6139409190615cec565b600083815260076020526040902054909150808214613993576001600160a01b03841660009081526006602090815260408083208584528252808320548484528184208190558352600790915290208190555b5060009182526007602090815260408084208490556001600160a01b039094168352600681528383209183525290812055565b6008546000906139d890600190615cec565b60008381526009602052604081205460088054939450909284908110613a0e57634e487b7160e01b600052603260045260246000fd5b906000526020600020015490508060088381548110613a3d57634e487b7160e01b600052603260045260246000fd5b6000918252602080832090910192909255828152600990915260408082208490558582528120556008805480613a8357634e487b7160e01b600052603160045260246000fd5b6001900381819060005260206000200160009055905550505050565b6000613aaa83610cd7565b6001600160a01b039093166000908152600660209081526040808320868452825280832085905593825260079052919091209190915550565b6001600160a01b038216613b395760405162461bcd60e51b815260206004820181905260248201527f4552433732313a206d696e7420746f20746865207a65726f206164647265737360448201526064016105bf565b613b428161126f565b15613b8e5760405162461bcd60e51b815260206004820152601c60248201527b115490cdcc8c4e881d1bdad95b88185b1c9958591e481b5a5b9d195960221b60448201526064016105bf565b613b9a60008383612b06565b6001600160a01b0382166000908152600360205260408120805460019290613bc3908490615c56565b909155505060008181526002602052604080822080546001600160a01b0319166001600160a01b0386169081179091559051839290600080516020615ec7833981519152908290a45050565b82805482825590600052602060002090600f01601090048101928215613cac5791602002820160005b83821115613c7c57833561ffff1683826101000a81548161ffff021916908361ffff1602179055509260200192600201602081600101049283019260010302613c38565b8015613caa5782816101000a81549061ffff0219169055600201602081600101049283019260010302613c7c565b505b50613cb8929150613d05565b5090565b60405180610100016040528060608152602001606081526020016060815260200160608152602001606081526020016060815260200160608152602001600061ffff1681525090565b5b80821115613cb85760008155600101613d06565b60008083601f840112613d2b578182fd5b5081356001600160401b03811115613d41578182fd5b6020830191508360208260051b8501011115613d5c57600080fd5b9250929050565b600060208284031215613d74578081fd5b8135610f4a81615ddb565b600060208284031215613d90578081fd5b8151610f4a81615ddb565b60008060408385031215613dad578081fd5b8235613db881615ddb565b91506020830135613dc881615ddb565b809150509250929050565b600080600060608486031215613de7578081fd5b8335613df281615ddb565b92506020840135613e0281615ddb565b929592945050506040919091013590565b60008060008060808587031215613e28578081fd5b8435613e3381615ddb565b93506020850135613e4381615ddb565b92506040850135915060608501356001600160401b03811115613e64578182fd5b8501601f81018713613e74578182fd5b8035613e87613e8282615c2f565b615bff565b818152886020838501011115613e9b578384fd5b81602084016020830137908101602001929092525092959194509250565b60008060408385031215613ecb578182fd5b8235613ed681615ddb565b915060208301358015158114613dc8578182fd5b60008060408385031215613efc578182fd5b8235613f0781615ddb565b946020939093013593505050565b60008060208385031215613f27578182fd5b82356001600160401b03811115613f3c578283fd5b613f4885828601613d1a565b90969095509350505050565b600060208284031215613f65578081fd5b8135610f4a81615df0565b600060208284031215613f81578081fd5b8151610f4a81615df0565b600060208284031215613f9d578081fd5b81516001600160401b03811115613fb2578182fd5b8201601f81018413613fc2578182fd5b8051613fd0613e8282615c2f565b818152856020838501011115613fe4578384fd5b613ff5826020830160208601615d03565b95945050505050565b60006020828403121561400f578081fd5b813561ffff81168114610f4a578182fd5b600060208284031215614031578081fd5b5035919050565b60008060006040848603121561404c578081fd5b8335925060208401356001600160401b03811115614068578182fd5b61407486828701613d1a565b9497909650939450505050565b60008151808452614099816020860160208601615d03565b601f01601f19169290920160200192915050565b600081516140bf818560208601615d03565b9290920192915050565b7f643d224d3139352e352032343863302033302033372e352033302035322e352081527f30732035322e352d33302035322e352030732d33372e352033302d35322e352060208201527f30732d35322e352d33302d35322e352030222066696c6c3d226e6f6e65223e006040820152605f0190565b7f3c616e696d617465206174747269627574654e616d653d2266696c6c222076618152716c7565733d227472616e73706172656e743b60701b602082015260320190565b603b60f81b815260010190565b661e17b830ba341f60c91b815260070190565b600082516141b4818460208701615d03565b9190910192915050565b600083516141d0818460208801615d03565b8351908301906141e4818360208801615d03565b01949350505050565b600084516141ff818460208901615d03565b845190830190614213818360208901615d03565b8451910190614226818360208801615d03565b0195945050505050565b60008651614242818460208b01615d03565b80830190507f3c616e696d61746520626567696e3d22732e626567696e3b732e656e642220618082527f7474726962757465547970653d22584d4c22206174747269627574654e616d658060208401527f3d227374726f6b652d646173686f6666736574222066726f6d3d22302220746f60408401527f3d2232383022206475723d223673222066696c6c3d22667265657a6522202f3e60608401528160808401528060a08401525050711e9139ba3937b5b291103b30b63ab2b99e9160711b60c0820152865161431a8160d2840160208b01615d03565b603b60f81b60d29290910191820152855161433c8160d3840160208a01615d03565b61438e61436761436161435c61435660d386880101614182565b8a6140ad565b614182565b876140ad565b7a1110323ab91e911b3991103334b6361e91333932b2bd329110179f60291b8152601b0190565b9998505050505050505050565b600082516143ad818460208701615d03565b631e17b39f60e11b920191825250600401919050565b600083516143d5818460208801615d03565b8351908301906143e9818360208801615d03565b600b60fa1b9101908152600101949350505050565b60008551614410818460208a01615d03565b919091019384525060208301919091526040820152606001919050565b7f3c73766720786d6c6e733d22687474703a2f2f7777772e77332e6f72672f323081527f30302f7376672220786d6c6e733a786c696e6b3d22687474703a2f2f7777772e60208201527f77332e6f72672f313939392f786c696e6b222077696474683d2235303022206860408201527f65696768743d22353030222076696577626f783d22302030203530302035303060608201527f22207374796c653d226261636b67726f756e642d636f6c6f723a23313131313160808201526218911f60e91b60a0820152600085516145098160a3850160208a01615d03565b8551908301906145208160a3840160208a01615d03565b85519101906145368160a3840160208901615d03565b845191019061454c8160a3840160208801615d03565b0160a3019695505050505050565b691e339034b21e9131111f60b11b81527f3c7061746820643d224d3134342e342038392e3331682d33312e33632d31362e600a8201527f38382033322e353720302037312e333820302037312e33386833312e33632d33602a8201527f302e39352d333520302d37312e333820302d37312e33385a6d2d31332e313720604a8201527f36332e3736682d31312e3635732d31322e34372d31372e333820302d35352e36606a8201527f386831312e3635732d32302e382032352e313820302035352e36385a22207472608a8201527f616e73666f726d3d226d61747269782832203020302032202d3935203029222060aa8201527f7374726f6b653d22626c61636b222066696c6c2d6f7061636974793d22302e3960ca82015261011160f51b60ea8201527f7374726f6b652d77696474683d222e3722207374726f6b652d6461736861727260ec8201527f61793d22323022207374726f6b652d646173686f66667365743d223130223e0061010c8201527f3c616e696d6174652069643d22702220626567696e3d22732e626567696e2b3261012b820152600080516020615ea783398151915261014b82015265626c61636b3b60d01b61016b8201526000613ff56147ab6148166147ca826147a561475961473b6101718a018d6140ad565b711db13630b1b59110323ab91e91193991179f60711b815260120190565b7f3c616e696d6174652069643d22712220626567696e3d22732e626567696e2b348152600080516020615ea7833981519152602082015265626c61636b3b60d01b604082015260460190565b896140ad565b721db13630b1b59110323ab91e9119399110179f60691b815260130190565b7f3c616e696d6174652069643d22722220626567696e3d22732e626567696e2b368152600080516020615ea7833981519152602082015265626c61636b3b60d01b604082015260460190565b856140ad565b6501e3830ba34160d51b81527f643d224d203130372e33313739203131372e3534353763202d31332e3339383560068201527f2032352e3835323420302035362e36353820302035362e363538206820362e3860268201527f37332063202d302e31353335202d302e34303637202d392e37373234202d323660468201527701718989c1a10171819981a90169a9b17191b1a1c103d11160451b60668201527f7472616e73666f726d3d227472616e736c617465282d38382c36302920736361607e8201527f6c6528312e332c312e332922207374726f6b652d6f7061636974793d222e3335609e8201527f222066696c6c2d6f7061636974793d222e35222066696c6c3d227472616e737060be8201526630b932b73a111f60c91b60de820152600061494b60e5830161413e565b835161495b818360208801615d03565b7f3b7472616e73706172656e742220626567696e3d22772e626567696e2b2e327391019081526b1110323ab91e9118b991179f60a11b6020820152600080516020615e27833981519152602c820152600080516020615ee7833981519152604c8201527f6172656e742220626567696e3d22772e626567696e2b2e327322206475723d22606c8201526418b991179f60d91b608c8201526114826091820161418f565b61418f565b6501e3830ba34160d51b81527f643d224d3130372e33313739203131372e3534353720632d31332e333938352060068201527f32352e3835323420302035362e36353820302035362e3635382068362e38373360268201527f20632d302e313533352d302e343036372d392e373732342d32362e313138342060468201526f0171819981a969a9b17191b1a1c3d11160851b60668201527f7472616e73666f726d3d227472616e736c617465282d38322c3130342920736360768201527f616c6528312c312922207374726f6b652d6f7061636974793d222e303522206660968201527f696c6c2d6f7061636974793d22302e33222066696c6c3d227472616e7370617260b68201526432b73a111f60d91b60d68201526000614b2860db830161413e565b8351614b38818360208801615d03565b7f3b7472616e73706172656e742220626567696e3d22772e626567696e2b2e347391019081526b1110323ab91e9118b991179f60a11b6020820152600080516020615e27833981519152602c820152600080516020615ee7833981519152604c8201527f6172656e742220626567696e3d22772e626567696e2b2e347322206475723d22606c8201526418b991179f60d91b608c8201527f3c2f706174683e3c2f673e3c75736520687265663d2223622220783d222d353060918201527f302220793d222d35303022207472616e73666f726d3d22726f7461746528313860b18201526a181491179f1e17b9bb339f60a91b60d182015260dc8101611482565b7f3c2f706174683e3c7465787420783d2231302220793d22343933222066696c6c8152611e9160f11b602082015260008451614c7b816022850160208901615d03565b6211101f60e91b6022918401918201528451614c9e816025840160208901615d03565b661e17ba32bc3a1f60c91b910160258101919091527f3c7061746820643d224d3130372e33313739203131372e35343537632d31332e602c8201527f333938352032352e3835323420302035362e36353820302035362e3635382068604c8201527f20362e383733632d302e313533352d302e343036372d392e373732342d32362e606c82015274018989c1a10171819981a969a9b17191b1a1c3d111605d1b608c8201527f7472616e73666f726d3d227472616e736c617465282d38352c3135292073636160a18201527f6c6528312e362c312e362922207374726f6b652d6f7061636974793d222e372260c18201527f2066696c6c2d6f7061636974793d222e37222066696c6c3d227472616e73706160e18201527f72656e74223e3c616e696d6174652069643d227722206174747269627574654e6101018201527f616d653d2266696c6c222076616c7565733d227472616e73706172656e743b00610121820152614ef56149fe614e76614e1a6101408501886140ad565b7f3b7472616e73706172656e742220626567696e3d22702e626567696e2b2e347381527f3b712e626567696e2b2e34733b722e626567696e2b2e347322206475723d22316020820152633991179f60e11b604082015260440190565b7f3c616e696d61746520626567696e3d22772e626567696e22206174747269627581527f74654e616d653d227374726f6b65222076616c7565733d227472616e7370617260208201527f656e743b626c61636b3b7472616e73706172656e7422206475723d223173222f6040820152601f60f91b606082015260610190565b9695505050505050565b7f2265787465726e616c5f75726c223a2268747470733a2f2f73796e6378636f6c8152681bdc9ccb9e1e5e888b60ba1b60208201527f226465736372697074696f6e223a225468652053594e4378436f6c6f7273206160298201527f72652067656e65726174656420616e642073746f72656420656e746972656c7960498201527f206f6e2d636861696e2c20616e64206d6179206265206c696e6b65642077697460698201527f6820757020746f20332054484520434f4c4f5253207072696d6974697665732060898201526f3337b91032b834b19032b33332b1ba1760811b60a98201526c5c6e546f6b656e2069643a202360981b60b9820152600082516150108160c6850160208701615d03565b601160f91b60c693909101928301525060c701919050565b743230ba309d30b8383634b1b0ba34b7b717b539b7b760591b8152607b60f81b6015820152681134b6b0b3b2911d1160b91b60168201527919185d184e9a5b5859d94bdcdd99cade1b5b0ed8985cd94d8d0b60321b601f8201528351600090615098816039850160208901615d03565b61088b60f21b60399184019182015284516150ba81603b840160208901615d03565b600b60fa1b603b929091019182015283516150dc81603c840160208801615d03565b607d60f81b603c9290910191820152603d0195945050505050565b6b1e3932b1ba103334b6361e9160a11b8152865160009061511f81600c850160208c01615d03565b6411103c1e9160d91b600c918401918201528751615144816011840160208c01615d03565b6411103c9e9160d91b60119290910191820152865161516a816016840160208b01615d03565b6811103bb4b23a341e9160b91b60169290910191820152855161519481601f840160208a01615d03565b6911103432b4b3b43a1e9160b11b601f929091019182015284516151bf816029840160208901615d03565b6151fe6151ee6143616029848601017304440e8e4c2dce6ccdee4da7a44e4dee8c2e8ca560631b815260140190565b631491179f60e11b815260040190565b9a9950505050505050505050565b6d1e31b4b931b632903334b6361e9160911b8152845160009061523681600e850160208a01615d03565b65111031bc1e9160d11b600e91840191820152855161525c816014840160208a01615d03565b65111031bc9e9160d11b60149290910191820152845161528381601a840160208901615d03565b641110391e9160d91b601a929091019182015283516152a981601f840160208801615d03565b6211179f60e91b601f92909101918201526022019695505050505050565b607b60f81b8152681134b6b0b3b2911d1160b91b60018201527919185d184e9a5b5859d94bdcdd99cade1b5b0ed8985cd94d8d0b60321b600a8201528351600090615319816024850160208901615d03565b61088b60f21b602491840191820152845161533b816026840160208901615d03565b8451910190615351816026840160208801615d03565b607d60f81b6026929091019182015260270195945050505050565b7f646174613a6170706c69636174696f6e2f6a736f6e3b6261736536342c0000008152600082516153a481601d850160208701615d03565b91909101601d0192915050565b7b19185d184e985c1c1b1a58d85d1a5bdb8bda9cdbdb8ed8985cd94d8d60221b8152600082516153e881601c850160208701615d03565b91909101601c0192915050565b600080516020615e078339815191528152600080516020615e47833981519152602082018190527f6b652d646173686172726179222076616c7565733d22303b35303b3022206475604083015275391e911b3991103334b6361e91333932b2bd3291179f60511b60608301527f3c616e696d61746520626567696e3d22612e626567696e222061747472696275607683015260968201527f6b652d7769647468222076616c7565733d2231363b32303b313622206475723d60b6820152731118b991103334b6361e91333932b2bd3291179f60611b60d68201527f3c2f706174683e3c706174682069643d22696e66696e6974795f32222073747260ea8201527f6f6b652d6461736861727261793d2233303022207374726f6b652d646173686f61010a8201527f66667365743d2233303022207374726f6b653d2223464646464646222073747261012a8201526e037b5b296bbb4b23a341e91189b111608d1b61014a82015260006104bf61015983016140c9565b600080516020615e078339815191528152600080516020615e4783398151915260208201526b35b291103b30b63ab2b99e9160a11b6040820152600084516155ba81604c850160208901615d03565b8083019050603b60f81b80604c83015285516155dd81604d850160208a01615d03565b604d92019182015283516155f881604e840160208801615d03565b791110323ab91e911a3991103334b6361e91333932b2bd3291179f60311b9101604e8101919091527f3c616e696d6174652069643d22612220626567696e3d22732e626567696e3b7360688201527f2e626567696e2b31733b732e626567696e2b32733b732e626567696e2b33733b60888201527f732e626567696e2b34733b732e626567696e2b35733b732e626567696e2b367360a882015261011160f51b60c88201527f617474726962757465547970653d22584d4c22206174747269627574654e616d60ca8201527f653d227374726f6b652d7769647468222076616c7565733d2231363b32303b3160ea8201527b1b1110323ab91e9118b991103334b6361e91333932b2bd329110179f60211b61010a820152614ef561012682017f3c616e696d6174652069643d22732220617474726962757465547970653d225881527f4d4c22206174747269627574654e616d653d227374726f6b652d646173686f6660208201527f667365742220626567696e3d2230733b732e656e642220746f3d20222d313830604082015279181110323ab91e911b39911010179f1e17b830ba341f1e17b39f60311b6060820152607a0190565b7f3c672069643d22696e66696e6974795f31223e3c706174682069643d22696e6681527f696e69747922207374726f6b652d6461736861727261793d223022207374726f60208201527f6b652d646173686f66667365743d223022207374726f6b652d77696474683d226040820152630189b11160e51b60608201526000615839606483016140c9565b600080516020615e078339815191528152600080516020615e4783398151915260208201526c35b29110103b30b63ab2b99e9160991b6040820152855161588781604d840160208a01615d03565b808201915050603b60f81b80604d83015285516158ab81604e850160208a01615d03565b604e920191820152614ef56158c3604f8301866140ad565b791110323ab91e911a3991103334b6361e91333932b2bd3291179f60311b8152601a0190565b6d2261747472696275746573223a5b60901b81527f7b2274726169745f74797065223a22526172697479222c2276616c7565223a22600e820152825160009061593981602e850160208801615d03565b62089f4b60ea1b602e918401918201527f7b2274726169745f74797065223a22436f6c6f7273222c2276616c7565223a2260318201528351615982816051840160208801615d03565b62227d5d60e81b60519290910191820152605401949350505050565b6001600160a01b0385811682528416602082015260408101839052608060608201819052600090614ef590830184614081565b602081526000610f4a6020830184614081565b6020808252600e908201526d4578636565647320737570706c7960901b604082015260600190565b60208082526032908201527f4552433732313a207472616e7366657220746f206e6f6e20455243373231526560408201527131b2b4bb32b91034b6b83632b6b2b73a32b960711b606082015260800190565b6020808252602c908201527f4552433732313a206f70657261746f7220717565727920666f72206e6f6e657860408201526b34b9ba32b73a103a37b5b2b760a11b606082015260800190565b602080825260129082015271496e73756666696369656e742066756e647360701b604082015260600190565b6020808252818101527f4f776e61626c653a2063616c6c6572206973206e6f7420746865206f776e6572604082015260600190565b60208082526031908201527f4552433732313a207472616e736665722063616c6c6572206973206e6f74206f6040820152701ddb995c881b9bdc88185c1c1c9bdd9959607a1b606082015260800190565b6020808252601d908201527f2320434f4c4f525320746f6b656e496473206d757374206265203c3d33000000604082015260600190565b6020808252601f908201527f5265656e7472616e637947756172643a207265656e7472616e742063616c6c00604082015260600190565b6020808252601b908201527a21a7a627a929903737ba1037bbb732b210313c9039b2b73232b91760291b604082015260600190565b604051601f8201601f191681016001600160401b0381118282101715615c2757615c27615dc5565b604052919050565b60006001600160401b03821115615c4857615c48615dc5565b50601f01601f191660200190565b60008219821115615c6957615c69615d99565b500190565b600061ffff80841680615c8357615c83615daf565b92169190910492915050565b600082615c9e57615c9e615daf565b500490565b600061ffff80831681851681830481118215151615615cc457615cc4615d99565b02949350505050565b6000816000190483118215151615615ce757615ce7615d99565b500290565b600082821015615cfe57615cfe615d99565b500390565b60005b83811015615d1e578181015183820152602001615d06565b83811115610f065750506000910152565b600181811c90821680615d4357607f821691505b60208210811415615d6457634e487b7160e01b600052602260045260246000fd5b50919050565b6000600019821415615d7e57615d7e615d99565b5060010190565b600082615d9457615d94615daf565b500690565b634e487b7160e01b600052601160045260246000fd5b634e487b7160e01b600052601260045260246000fd5b634e487b7160e01b600052604160045260246000fd5b6001600160a01b038116811461121c57600080fd5b6001600160e01b03198116811461121c57600080fdfe3c616e696d61746520626567696e3d22732e626567696e2220617474726962753c616e696d617465206174747269627574654e616d653d227374726f6b6522207465547970653d22584d4c22206174747269627574654e616d653d227374726f4142434445464748494a4b4c4d4e4f505152535455565758595a6162636465666768696a6b6c6d6e6f707172737475767778797a303132333435363738392b2f7322206174747269627574654e616d653d2266696c6c222076616c7565733d22ddf252ad1be2c89b69c2b068fc378daa952ba7f163c4a11628f55a4df523b3ef76616c7565733d227472616e73706172656e743b626c61636b3b7472616e7370a264697066735822122018f8efd50b7e03c653416cf32267235e349503606ef32eda2dcbd498f8a4f54c64736f6c63430008040033",
  "devdoc": {
    "details": "Extends ERC721 Non-Fungible Token Standard basic implementation",
    "kind": "dev",
    "methods": {
      "approve(address,uint256)": {
        "details": "See {IERC721-approve}."
      },
      "balanceOf(address)": {
        "details": "See {IERC721-balanceOf}."
      },
      "getApproved(uint256)": {
        "details": "See {IERC721-getApproved}."
      },
      "isApprovedForAll(address,address)": {
        "details": "See {IERC721-isApprovedForAll}."
      },
      "name()": {
        "details": "See {IERC721Metadata-name}."
      },
      "owner()": {
        "details": "Returns the address of the current owner."
      },
      "ownerOf(uint256)": {
        "details": "See {IERC721-ownerOf}."
      },
      "renounceOwnership()": {
        "details": "Leaves the contract without owner. It will not be possible to call `onlyOwner` functions anymore. Can only be called by the current owner. NOTE: Renouncing ownership will leave the contract without an owner, thereby removing any functionality that is only available to the owner."
      },
      "safeTransferFrom(address,address,uint256)": {
        "details": "See {IERC721-safeTransferFrom}."
      },
      "safeTransferFrom(address,address,uint256,bytes)": {
        "details": "See {IERC721-safeTransferFrom}."
      },
      "setApprovalForAll(address,bool)": {
        "details": "See {IERC721-setApprovalForAll}."
      },
      "supportsInterface(bytes4)": {
        "details": "See {IERC165-supportsInterface}."
      },
      "symbol()": {
        "details": "See {IERC721Metadata-symbol}."
      },
      "tokenByIndex(uint256)": {
        "details": "See {IERC721Enumerable-tokenByIndex}."
      },
      "tokenOfOwnerByIndex(address,uint256)": {
        "details": "See {IERC721Enumerable-tokenOfOwnerByIndex}."
      },
      "tokenURI(uint256)": {
        "details": "See {IERC721Metadata-tokenURI}."
      },
      "totalSupply()": {
        "details": "See {IERC721Enumerable-totalSupply}."
      },
      "transferFrom(address,address,uint256)": {
        "details": "See {IERC721-transferFrom}."
      },
      "transferOwnership(address)": {
        "details": "Transfers ownership of the contract to a new account (`newOwner`). Can only be called by the current owner."
      }
    },
    "title": "Sync x Colors contract",
    "version": 1
  },
  "userdoc": {
    "kind": "user",
    "methods": {
      "mint(uint16[])": {
        "notice": "Mint one SYNCxCOLOR NFT"
      },
      "mintMany(uint256,uint16[])": {
        "notice": "Mint multiple SYNCxCOLOR NFTs"
      },
      "updateColors(uint256,uint16[])": {
        "notice": "Store mapping between tokenId and applied tokenIdColors"
      }
    },
    "version": 1
  },
  "storageLayout": {
    "storage": [
      {
        "astId": 262,
        "contract": "contracts/SyncXColors.sol:Sync",
        "label": "_name",
        "offset": 0,
        "slot": "0",
        "type": "t_string_storage"
      },
      {
        "astId": 264,
        "contract": "contracts/SyncXColors.sol:Sync",
        "label": "_symbol",
        "offset": 0,
        "slot": "1",
        "type": "t_string_storage"
      },
      {
        "astId": 268,
        "contract": "contracts/SyncXColors.sol:Sync",
        "label": "_owners",
        "offset": 0,
        "slot": "2",
        "type": "t_mapping(t_uint256,t_address)"
      },
      {
        "astId": 272,
        "contract": "contracts/SyncXColors.sol:Sync",
        "label": "_balances",
        "offset": 0,
        "slot": "3",
        "type": "t_mapping(t_address,t_uint256)"
      },
      {
        "astId": 276,
        "contract": "contracts/SyncXColors.sol:Sync",
        "label": "_tokenApprovals",
        "offset": 0,
        "slot": "4",
        "type": "t_mapping(t_uint256,t_address)"
      },
      {
        "astId": 282,
        "contract": "contracts/SyncXColors.sol:Sync",
        "label": "_operatorApprovals",
        "offset": 0,
        "slot": "5",
        "type": "t_mapping(t_address,t_mapping(t_address,t_bool))"
      },
      {
        "astId": 1216,
        "contract": "contracts/SyncXColors.sol:Sync",
        "label": "_ownedTokens",
        "offset": 0,
        "slot": "6",
        "type": "t_mapping(t_address,t_mapping(t_uint256,t_uint256))"
      },
      {
        "astId": 1220,
        "contract": "contracts/SyncXColors.sol:Sync",
        "label": "_ownedTokensIndex",
        "offset": 0,
        "slot": "7",
        "type": "t_mapping(t_uint256,t_uint256)"
      },
      {
        "astId": 1223,
        "contract": "contracts/SyncXColors.sol:Sync",
        "label": "_allTokens",
        "offset": 0,
        "slot": "8",
        "type": "t_array(t_uint256)dyn_storage"
      },
      {
        "astId": 1227,
        "contract": "contracts/SyncXColors.sol:Sync",
        "label": "_allTokensIndex",
        "offset": 0,
        "slot": "9",
        "type": "t_mapping(t_uint256,t_uint256)"
      },
      {
        "astId": 7,
        "contract": "contracts/SyncXColors.sol:Sync",
        "label": "_owner",
        "offset": 0,
        "slot": "10",
        "type": "t_address"
      },
      {
        "astId": 207,
        "contract": "contracts/SyncXColors.sol:Sync",
        "label": "_status",
        "offset": 0,
        "slot": "11",
        "type": "t_uint256"
      },
      {
        "astId": 2372,
        "contract": "contracts/SyncXColors.sol:Sync",
        "label": "_colorTokenIds",
        "offset": 0,
        "slot": "12",
        "type": "t_mapping(t_uint256,t_array(t_uint16)dyn_storage)"
      },
      {
        "astId": 2376,
        "contract": "contracts/SyncXColors.sol:Sync",
        "label": "_seed",
        "offset": 0,
        "slot": "13",
        "type": "t_mapping(t_uint256,t_uint256)"
      }
    ],
    "types": {
      "t_address": {
        "encoding": "inplace",
        "label": "address",
        "numberOfBytes": "20"
      },
      "t_array(t_uint16)dyn_storage": {
        "base": "t_uint16",
        "encoding": "dynamic_array",
        "label": "uint16[]",
        "numberOfBytes": "32"
      },
      "t_array(t_uint256)dyn_storage": {
        "base": "t_uint256",
        "encoding": "dynamic_array",
        "label": "uint256[]",
        "numberOfBytes": "32"
      },
      "t_bool": {
        "encoding": "inplace",
        "label": "bool",
        "numberOfBytes": "1"
      },
      "t_mapping(t_address,t_bool)": {
        "encoding": "mapping",
        "key": "t_address",
        "label": "mapping(address => bool)",
        "numberOfBytes": "32",
        "value": "t_bool"
      },
      "t_mapping(t_address,t_mapping(t_address,t_bool))": {
        "encoding": "mapping",
        "key": "t_address",
        "label": "mapping(address => mapping(address => bool))",
        "numberOfBytes": "32",
        "value": "t_mapping(t_address,t_bool)"
      },
      "t_mapping(t_address,t_mapping(t_uint256,t_uint256))": {
        "encoding": "mapping",
        "key": "t_address",
        "label": "mapping(address => mapping(uint256 => uint256))",
        "numberOfBytes": "32",
        "value": "t_mapping(t_uint256,t_uint256)"
      },
      "t_mapping(t_address,t_uint256)": {
        "encoding": "mapping",
        "key": "t_address",
        "label": "mapping(address => uint256)",
        "numberOfBytes": "32",
        "value": "t_uint256"
      },
      "t_mapping(t_uint256,t_address)": {
        "encoding": "mapping",
        "key": "t_uint256",
        "label": "mapping(uint256 => address)",
        "numberOfBytes": "32",
        "value": "t_address"
      },
      "t_mapping(t_uint256,t_array(t_uint16)dyn_storage)": {
        "encoding": "mapping",
        "key": "t_uint256",
        "label": "mapping(uint256 => uint16[])",
        "numberOfBytes": "32",
        "value": "t_array(t_uint16)dyn_storage"
      },
      "t_mapping(t_uint256,t_uint256)": {
        "encoding": "mapping",
        "key": "t_uint256",
        "label": "mapping(uint256 => uint256)",
        "numberOfBytes": "32",
        "value": "t_uint256"
      },
      "t_string_storage": {
        "encoding": "bytes",
        "label": "string",
        "numberOfBytes": "32"
      },
      "t_uint16": {
        "encoding": "inplace",
        "label": "uint16",
        "numberOfBytes": "2"
      },
      "t_uint256": {
        "encoding": "inplace",
        "label": "uint256",
        "numberOfBytes": "32"
      }
    }
  }
}