{
  "address": "0xe7f1725E7734CE288F8367e1Bb143E90bb3F0512",
  "abi": [
    {
      "inputs": [],
      "stateMutability": "nonpayable",
      "type": "constructor"
    },
    {
      "anonymous": false,
      "inputs": [
        {
          "indexed": true,
          "internalType": "address",
          "name": "owner",
          "type": "address"
        },
        {
          "indexed": true,
          "internalType": "address",
          "name": "approved",
          "type": "address"
        },
        {
          "indexed": true,
          "internalType": "uint256",
          "name": "tokenId",
          "type": "uint256"
        }
      ],
      "name": "Approval",
      "type": "event"
    },
    {
      "anonymous": false,
      "inputs": [
        {
          "indexed": true,
          "internalType": "address",
          "name": "owner",
          "type": "address"
        },
        {
          "indexed": true,
          "internalType": "address",
          "name": "operator",
          "type": "address"
        },
        {
          "indexed": false,
          "internalType": "bool",
          "name": "approved",
          "type": "bool"
        }
      ],
      "name": "ApprovalForAll",
      "type": "event"
    },
    {
      "anonymous": false,
      "inputs": [
        {
          "indexed": true,
          "internalType": "address",
          "name": "previousOwner",
          "type": "address"
        },
        {
          "indexed": true,
          "internalType": "address",
          "name": "newOwner",
          "type": "address"
        }
      ],
      "name": "OwnershipTransferred",
      "type": "event"
    },
    {
      "anonymous": false,
      "inputs": [
        {
          "indexed": true,
          "internalType": "address",
          "name": "from",
          "type": "address"
        },
        {
          "indexed": true,
          "internalType": "address",
          "name": "to",
          "type": "address"
        },
        {
          "indexed": true,
          "internalType": "uint256",
          "name": "tokenId",
          "type": "uint256"
        }
      ],
      "name": "Transfer",
      "type": "event"
    },
    {
      "inputs": [],
      "name": "MAX_TOKENS",
      "outputs": [
        {
          "internalType": "uint256",
          "name": "",
          "type": "uint256"
        }
      ],
      "stateMutability": "view",
      "type": "function"
    },
    {
      "inputs": [],
      "name": "THE_COLORS",
      "outputs": [
        {
          "internalType": "address",
          "name": "",
          "type": "address"
        }
      ],
      "stateMutability": "view",
      "type": "function"
    },
    {
      "inputs": [
        {
          "internalType": "address",
          "name": "to",
          "type": "address"
        },
        {
          "internalType": "uint256",
          "name": "tokenId",
          "type": "uint256"
        }
      ],
      "name": "approve",
      "outputs": [],
      "stateMutability": "nonpayable",
      "type": "function"
    },
    {
      "inputs": [
        {
          "internalType": "address",
          "name": "owner",
          "type": "address"
        }
      ],
      "name": "balanceOf",
      "outputs": [
        {
          "internalType": "uint256",
          "name": "",
          "type": "uint256"
        }
      ],
      "stateMutability": "view",
      "type": "function"
    },
    {
      "inputs": [
        {
          "internalType": "uint256",
          "name": "tokenId",
          "type": "uint256"
        }
      ],
      "name": "getApproved",
      "outputs": [
        {
          "internalType": "address",
          "name": "",
          "type": "address"
        }
      ],
      "stateMutability": "view",
      "type": "function"
    },
    {
      "inputs": [
        {
          "internalType": "uint256",
          "name": "tokenId",
          "type": "uint256"
        }
      ],
      "name": "getBase64TokenSVG",
      "outputs": [
        {
          "internalType": "string",
          "name": "",
          "type": "string"
        }
      ],
      "stateMutability": "view",
      "type": "function"
    },
    {
      "inputs": [
        {
          "internalType": "uint256",
          "name": "tokenId",
          "type": "uint256"
        }
      ],
      "name": "getTokenMetadata",
      "outputs": [
        {
          "internalType": "string",
          "name": "",
          "type": "string"
        }
      ],
      "stateMutability": "view",
      "type": "function"
    },
    {
      "inputs": [
        {
          "internalType": "uint256",
          "name": "tokenId",
          "type": "uint256"
        }
      ],
      "name": "getTokenSVG",
      "outputs": [
        {
          "internalType": "string",
          "name": "",
          "type": "string"
        }
      ],
      "stateMutability": "view",
      "type": "function"
    },
    {
      "inputs": [
        {
          "internalType": "address",
          "name": "owner",
          "type": "address"
        },
        {
          "internalType": "address",
          "name": "operator",
          "type": "address"
        }
      ],
      "name": "isApprovedForAll",
      "outputs": [
        {
          "internalType": "bool",
          "name": "",
          "type": "bool"
        }
      ],
      "stateMutability": "view",
      "type": "function"
    },
    {
      "inputs": [
        {
          "internalType": "uint16[]",
          "name": "colorTokenIds",
          "type": "uint16[]"
        }
      ],
      "name": "mint",
      "outputs": [],
      "stateMutability": "payable",
      "type": "function"
    },
    {
      "inputs": [
        {
          "internalType": "uint256",
          "name": "_mintAmount",
          "type": "uint256"
        },
        {
          "internalType": "uint16[]",
          "name": "colorTokenIds",
          "type": "uint16[]"
        }
      ],
      "name": "mintMany",
      "outputs": [],
      "stateMutability": "payable",
      "type": "function"
    },
    {
      "inputs": [],
      "name": "name",
      "outputs": [
        {
          "internalType": "string",
          "name": "",
          "type": "string"
        }
      ],
      "stateMutability": "view",
      "type": "function"
    },
    {
      "inputs": [],
      "name": "owner",
      "outputs": [
        {
          "internalType": "address",
          "name": "",
          "type": "address"
        }
      ],
      "stateMutability": "view",
      "type": "function"
    },
    {
      "inputs": [
        {
          "internalType": "uint256",
          "name": "tokenId",
          "type": "uint256"
        }
      ],
      "name": "ownerOf",
      "outputs": [
        {
          "internalType": "address",
          "name": "",
          "type": "address"
        }
      ],
      "stateMutability": "view",
      "type": "function"
    },
    {
      "inputs": [],
      "name": "renounceOwnership",
      "outputs": [],
      "stateMutability": "nonpayable",
      "type": "function"
    },
    {
      "inputs": [
        {
          "internalType": "address",
          "name": "from",
          "type": "address"
        },
        {
          "internalType": "address",
          "name": "to",
          "type": "address"
        },
        {
          "internalType": "uint256",
          "name": "tokenId",
          "type": "uint256"
        }
      ],
      "name": "safeTransferFrom",
      "outputs": [],
      "stateMutability": "nonpayable",
      "type": "function"
    },
    {
      "inputs": [
        {
          "internalType": "address",
          "name": "from",
          "type": "address"
        },
        {
          "internalType": "address",
          "name": "to",
          "type": "address"
        },
        {
          "internalType": "uint256",
          "name": "tokenId",
          "type": "uint256"
        },
        {
          "internalType": "bytes",
          "name": "_data",
          "type": "bytes"
        }
      ],
      "name": "safeTransferFrom",
      "outputs": [],
      "stateMutability": "nonpayable",
      "type": "function"
    },
    {
      "inputs": [
        {
          "internalType": "address",
          "name": "operator",
          "type": "address"
        },
        {
          "internalType": "bool",
          "name": "approved",
          "type": "bool"
        }
      ],
      "name": "setApprovalForAll",
      "outputs": [],
      "stateMutability": "nonpayable",
      "type": "function"
    },
    {
      "inputs": [
        {
          "internalType": "bytes4",
          "name": "interfaceId",
          "type": "bytes4"
        }
      ],
      "name": "supportsInterface",
      "outputs": [
        {
          "internalType": "bool",
          "name": "",
          "type": "bool"
        }
      ],
      "stateMutability": "view",
      "type": "function"
    },
    {
      "inputs": [],
      "name": "symbol",
      "outputs": [
        {
          "internalType": "string",
          "name": "",
          "type": "string"
        }
      ],
      "stateMutability": "view",
      "type": "function"
    },
    {
      "inputs": [
        {
          "internalType": "uint256",
          "name": "index",
          "type": "uint256"
        }
      ],
      "name": "tokenByIndex",
      "outputs": [
        {
          "internalType": "uint256",
          "name": "",
          "type": "uint256"
        }
      ],
      "stateMutability": "view",
      "type": "function"
    },
    {
      "inputs": [
        {
          "internalType": "address",
          "name": "owner",
          "type": "address"
        },
        {
          "internalType": "uint256",
          "name": "index",
          "type": "uint256"
        }
      ],
      "name": "tokenOfOwnerByIndex",
      "outputs": [
        {
          "internalType": "uint256",
          "name": "",
          "type": "uint256"
        }
      ],
      "stateMutability": "view",
      "type": "function"
    },
    {
      "inputs": [
        {
          "internalType": "uint256",
          "name": "tokenId",
          "type": "uint256"
        }
      ],
      "name": "tokenURI",
      "outputs": [
        {
          "internalType": "string",
          "name": "",
          "type": "string"
        }
      ],
      "stateMutability": "view",
      "type": "function"
    },
    {
      "inputs": [],
      "name": "totalSupply",
      "outputs": [
        {
          "internalType": "uint256",
          "name": "",
          "type": "uint256"
        }
      ],
      "stateMutability": "view",
      "type": "function"
    },
    {
      "inputs": [
        {
          "internalType": "address",
          "name": "from",
          "type": "address"
        },
        {
          "internalType": "address",
          "name": "to",
          "type": "address"
        },
        {
          "internalType": "uint256",
          "name": "tokenId",
          "type": "uint256"
        }
      ],
      "name": "transferFrom",
      "outputs": [],
      "stateMutability": "nonpayable",
      "type": "function"
    },
    {
      "inputs": [
        {
          "internalType": "address",
          "name": "newOwner",
          "type": "address"
        }
      ],
      "name": "transferOwnership",
      "outputs": [],
      "stateMutability": "nonpayable",
      "type": "function"
    },
    {
      "inputs": [
        {
          "internalType": "uint256",
          "name": "tokenId",
          "type": "uint256"
        },
        {
          "internalType": "uint16[]",
          "name": "colorTokenIds",
          "type": "uint16[]"
        }
      ],
      "name": "updateColors",
      "outputs": [],
      "stateMutability": "payable",
      "type": "function"
    },
    {
      "inputs": [],
      "name": "withdraw",
      "outputs": [],
      "stateMutability": "payable",
      "type": "function"
    }
  ],
  "transactionHash": "0x3c45ecca7a34b26b56fbe7021d6f921aa7947ac3f8b795d48abc3f4f928b7011",
  "args": [],
  "solcInputHash": "21b3f8cc9a43a371eed316846aa32524",
  "bytecode": "0x60806040523480156200001157600080fd5b50604080518082018252600d81526c53796e63207820436f6c6f727360981b60208083019182528351808501909452600984526853594e43204265746160b81b9084015281519192916200006891600091620000fc565b5080516200007e906001906020840190620000fc565b5050506200009b62000095620000a660201b60201c565b620000aa565b6001600b55620001df565b3390565b600a80546001600160a01b038381166001600160a01b0319831681179093556040519116919082907f8be0079c531659141344cd1fd0a4f28419497f9722a3daafe3b4186f6b6457e090600090a35050565b8280546200010a90620001a2565b90600052602060002090601f0160209004810192826200012e576000855562000179565b82601f106200014957805160ff191683800117855562000179565b8280016001018555821562000179579182015b82811115620001795782518255916020019190600101906200015c565b50620001879291506200018b565b5090565b5b808211156200018757600081556001016200018c565b600181811c90821680620001b757607f821691505b60208210811415620001d957634e487b7160e01b600052602260045260246000fd5b50919050565b615a4080620001ef6000396000f3fe6080604052600436106101475760003560e01c806301ffc9a71461014c57806306fdde0314610181578063081812fc146101a3578063095ea7b3146101db5780630c1f529a146101fd57806318160ddd1461021057806323b872dd1461022f5780632f745c591461024f5780633ccfd60b1461026f57806342842e0e146102775780634f6ccce71461029757806360316801146102b75780636352211e146102d757806370a08231146102f7578063715018a6146103175780638da5cb5b1461032c57806395d89b41146103415780639c5e92fb14610356578063a22cb46514610369578063b88d4fde14610389578063c7ab2dbc146103a9578063c87b56dd146103c9578063c8f8b613146103e9578063ce02f82314610411578063deba081314610431578063e985e9c514610444578063f2fde38b14610464578063f47c84c514610484575b600080fd5b34801561015857600080fd5b5061016c610167366004613a6a565b61049a565b60405190151581526020015b60405180910390f35b34801561018d57600080fd5b506101966104c5565b60405161017891906154d5565b3480156101af57600080fd5b506101c36101be366004613b36565b610557565b6040516001600160a01b039091168152602001610178565b3480156101e757600080fd5b506101fb6101f6366004613a00565b6105e4565b005b6101fb61020b366004613b4e565b6106f5565b34801561021c57600080fd5b506008545b604051908152602001610178565b34801561023b57600080fd5b506101fb61024a3660046138e9565b6108d4565b34801561025b57600080fd5b5061022161026a366004613a00565b610905565b6101fb61099b565b34801561028357600080fd5b506101fb6102923660046138e9565b610b1c565b3480156102a357600080fd5b506102216102b2366004613b36565b610b37565b3480156102c357600080fd5b506101966102d2366004613b36565b610bd8565b3480156102e357600080fd5b506101c36102f2366004613b36565b610c60565b34801561030357600080fd5b50610221610312366004613879565b610cd7565b34801561032357600080fd5b506101fb610d5e565b34801561033857600080fd5b506101c3610d99565b34801561034d57600080fd5b50610196610da8565b6101fb610364366004613a2b565b610db7565b34801561037557600080fd5b506101fb6103843660046139cf565b610ec5565b34801561039557600080fd5b506101fb6103a4366004613929565b610ed4565b3480156103b557600080fd5b506101966103c4366004613b36565b610f0c565b3480156103d557600080fd5b506101966103e4366004613b36565b610f51565b3480156103f557600080fd5b506101c3735fbdb2315678afecb367f032d93f642f64180aa381565b34801561041d57600080fd5b5061019661042c366004613b36565b611006565b6101fb61043f366004613b4e565b61105c565b34801561045057600080fd5b5061016c61045f3660046138b1565b611151565b34801561047057600080fd5b506101fb61047f366004613879565b61117f565b34801561049057600080fd5b50610221610d0581565b60006001600160e01b0319821663780e9d6360e01b14806104bf57506104bf8261121f565b92915050565b6060600080546104d490615833565b80601f016020809104026020016040519081016040528092919081815260200182805461050090615833565b801561054d5780601f106105225761010080835404028352916020019161054d565b820191906000526020600020905b81548152906001019060200180831161053057829003601f168201915b5050505050905090565b60006105628261126f565b6105c85760405162461bcd60e51b815260206004820152602c60248201527f4552433732313a20617070726f76656420717565727920666f72206e6f6e657860448201526b34b9ba32b73a103a37b5b2b760a11b60648201526084015b60405180910390fd5b506000908152600460205260409020546001600160a01b031690565b60006105ef82610c60565b9050806001600160a01b0316836001600160a01b0316141561065d5760405162461bcd60e51b815260206004820152602160248201527f4552433732313a20617070726f76616c20746f2063757272656e74206f776e656044820152603960f91b60648201526084016105bf565b336001600160a01b038216148061067957506106798133611151565b6106e65760405162461bcd60e51b815260206004820152603860248201527f4552433732313a20617070726f76652063616c6c6572206973206e6f74206f776044820152771b995c881b9bdc88185c1c1c9bdd995908199bdc88185b1b60421b60648201526084016105bf565b6106f0838361128c565b505050565b6002600b5414156107185760405162461bcd60e51b81526004016105bf90615697565b6002600b55600061072860085490565b9050600a8411156107705760405162461bcd60e51b815260206004820152601260248201527109ac2f040dad2dce840626040e0cae440e8f60731b60448201526064016105bf565b600084116107b55760405162461bcd60e51b815260206004820152601260248201527104d696e742073686f756c64206265203e20360741b60448201526064016105bf565b610d056107c68561ffff841661575a565b11156107e45760405162461bcd60e51b81526004016105bf906154e8565b60038211156108055760405162461bcd60e51b81526004016105bf90615660565b61081684668e1bc9bf0400006157d1565b3410156108355760405162461bcd60e51b81526004016105bf906155ae565b61083f83836112fa565b15156001146108605760405162461bcd60e51b81526004016105bf906156ce565b61ffff81165b6108748561ffff841661575a565b8110156108c8576000818152600c60205260409020610894908585613725565b5061089e81611411565b6000828152600d60205260409020556108b68161148a565b806108c08161586e565b915050610866565b50506001600b55505050565b6108de3382611494565b6108fa5760405162461bcd60e51b81526004016105bf9061560f565b6106f0838383611511565b600061091083610cd7565b82106109725760405162461bcd60e51b815260206004820152602b60248201527f455243373231456e756d657261626c653a206f776e657220696e646578206f7560448201526a74206f6620626f756e647360a81b60648201526084016105bf565b506001600160a01b03919091166000908152600660209081526040808320938352929052205490565b6002600b5414156109be5760405162461bcd60e51b81526004016105bf90615697565b6002600b55336109cc610d99565b6001600160a01b0316146109f25760405162461bcd60e51b81526004016105bf906155da565b4760006064610a028360216157d1565b610a0c9190615793565b905060006101f4610a1e8460436157d1565b610a289190615793565b905060006101f4610a3a8560436157d1565b610a449190615793565b905060006101f4610a568660436157d1565b610a609190615793565b905060006101f4610a728760436157d1565b610a7c9190615793565b905060006101f4610a8e8860436157d1565b610a989190615793565b6040519091507348ae900e9df45441b2001db4da92ce0e7c08c6d29087156108fc029088906000818181858888f19350505050158015610adc573d6000803e3d6000fd5b50604051479750339088156108fc029089906000818181858888f19350505050158015610b0d573d6000803e3d6000fd5b50506001600b55505050505050565b6106f083838360405180602001604052806000815250610ed4565b6000610b4260085490565b8210610ba55760405162461bcd60e51b815260206004820152602c60248201527f455243373231456e756d657261626c653a20676c6f62616c20696e646578206f60448201526b7574206f6620626f756e647360a01b60648201526084016105bf565b60088281548110610bc657634e487b7160e01b600052603260045260246000fd5b90600052602060002001549050919050565b6060610be38261126f565b610bff5760405162461bcd60e51b81526004016105bf90615562565b6000610c0a836116aa565b90506000610c20610c1b8584611a7b565b61214f565b905080610c2c856122c2565b610c3686856122f3565b604051602001610c4893929190614b1a565b60405160208183030381529060405292505050919050565b6000818152600260205260408120546001600160a01b0316806104bf5760405162461bcd60e51b815260206004820152602960248201527f4552433732313a206f776e657220717565727920666f72206e6f6e657869737460448201526832b73a103a37b5b2b760b91b60648201526084016105bf565b60006001600160a01b038216610d425760405162461bcd60e51b815260206004820152602a60248201527f4552433732313a2062616c616e636520717565727920666f7220746865207a65604482015269726f206164647265737360b01b60648201526084016105bf565b506001600160a01b031660009081526003602052604090205490565b33610d67610d99565b6001600160a01b031614610d8d5760405162461bcd60e51b81526004016105bf906155da565b610d976000612405565b565b600a546001600160a01b031690565b6060600180546104d490615833565b6002600b541415610dda5760405162461bcd60e51b81526004016105bf90615697565b6002600b556000610dea60085490565b9050610d058110610e0d5760405162461bcd60e51b81526004016105bf906154e8565b6003821115610e2e5760405162461bcd60e51b81526004016105bf90615660565b668e1bc9bf040000341015610e555760405162461bcd60e51b81526004016105bf906155ae565b610e5f83836112fa565b1515600114610e805760405162461bcd60e51b81526004016105bf906156ce565b6000818152600c60205260409020610e99908484613725565b50610ea381611411565b6000828152600d6020526040902055610ebb8161148a565b50506001600b5550565b610ed0338383612457565b5050565b610ede3383611494565b610efa5760405162461bcd60e51b81526004016105bf9061560f565b610f0684848484612522565b50505050565b6060610f178261126f565b610f335760405162461bcd60e51b81526004016105bf90615562565b6000610f3e836116aa565b9050610f4a8382611a7b565b9392505050565b6060610f5c8261126f565b610f785760405162461bcd60e51b81526004016105bf90615562565b6000610f83836116aa565b90506000610f918483611a7b565b90506000610f9e8261214f565b9050610fdd81610fad876122c2565b610fb788876122f3565b604051602001610fc993929190614db9565b60405160208183030381529060405261214f565b604051602001610fed91906150b4565b6040516020818303038152906040529350505050919050565b60606110118261126f565b61102d5760405162461bcd60e51b81526004016105bf90615562565b6000611038836116aa565b90506000611049610c1b8584611a7b565b905080604051602001610c4891906150f9565b61106583610c60565b6001600160a01b0316336001600160a01b0316146110c55760405162461bcd60e51b815260206004820181905260248201527f4f6e6c79204e465420686f6c6465722063616e20757064617465436f6c6f727360448201526064016105bf565b60038111156110e65760405162461bcd60e51b81526004016105bf90615660565b6611c37937e0800034101561110d5760405162461bcd60e51b81526004016105bf906155ae565b61111782826112fa565b15156001146111385760405162461bcd60e51b81526004016105bf906156ce565b6000838152600c60205260409020610f06908383613725565b6001600160a01b03918216600090815260056020908152604080832093909416825291909152205460ff1690565b33611188610d99565b6001600160a01b0316146111ae5760405162461bcd60e51b81526004016105bf906155da565b6001600160a01b0381166112135760405162461bcd60e51b815260206004820152602660248201527f4f776e61626c653a206e6577206f776e657220697320746865207a65726f206160448201526564647265737360d01b60648201526084016105bf565b61121c81612405565b50565b60006001600160e01b031982166380ac58cd60e01b148061125057506001600160e01b03198216635b5e139f60e01b145b806104bf57506301ffc9a760e01b6001600160e01b03198316146104bf565b6000908152600260205260409020546001600160a01b0316151590565b600081815260046020526040902080546001600160a01b0319166001600160a01b03841690811790915581906112c182610c60565b6001600160a01b03167f8c5be1e5ebec7d5bd14f71427d1e84f3dd0314c0f7b2291e5b200ac8c7c3b92560405160405180910390a45050565b6000735fbdb2315678afecb367f032d93f642f64180aa3815b8381101561140657816001600160a01b0316636352211e86868481811061134a57634e487b7160e01b600052603260045260246000fd5b905060200201602081019061135f9190613b14565b61ffff166040518263ffffffff1660e01b815260040161138191815260200190565b60206040518083038186803b15801561139957600080fd5b505afa1580156113ad573d6000803e3d6000fd5b505050506040513d601f19601f820116820180604052508101906113d19190613895565b6001600160a01b0316336001600160a01b0316146113f4576000925050506104bf565b806113fe8161586e565b915050611313565b506001949350505050565b60008061141f83600161575a565b9050735fbdb2315678afecb367f032d93f642f64180aa361144081836157d1565b61144983612555565b42448460405160200161145f9493929190613f4d565b6040516020818303038152906040528051906020012060001c611482919061575a565b949350505050565b61121c338261266e565b600061149f8261126f565b6114bb5760405162461bcd60e51b81526004016105bf90615562565b60006114c683610c60565b9050806001600160a01b0316846001600160a01b031614806115015750836001600160a01b03166114f684610557565b6001600160a01b0316145b8061148257506114828185611151565b826001600160a01b031661152482610c60565b6001600160a01b03161461158c5760405162461bcd60e51b815260206004820152602960248201527f4552433732313a207472616e73666572206f6620746f6b656e2074686174206960448201526839903737ba1037bbb760b91b60648201526084016105bf565b6001600160a01b0382166115ee5760405162461bcd60e51b8152602060048201526024808201527f4552433732313a207472616e7366657220746f20746865207a65726f206164646044820152637265737360e01b60648201526084016105bf565b6115f9838383612688565b61160460008261128c565b6001600160a01b038316600090815260036020526040812080546001929061162d9084906157f0565b90915550506001600160a01b038216600090815260036020526040812080546001929061165b90849061575a565b909155505060008181526002602052604080822080546001600160a01b0319166001600160a01b0386811691821790925591518493918716916000805160206159cb83398151915291a4505050565b6116b26137d2565b6116ba6137d2565b6000838152600d602052604090819020548151600f808252610200820190935290918160200160208202803683375050506040838101919091528051600f808252610200820190925290602082016101e080368337505050606083015260408051600f808252610200820190925290602082016101e08036833750505060a083015260408051600f808252610200820190925290602082016101e080368337505050608083015260408051600f808252610200820190925290602082016101e08036833750505060c083015260408051600f808252610200820190925290602082016101e08036833701905050602083015260408051600f80825261020082019092529081602001602082028036833750505082526117e26103e86103ff60701b8316615889565b6117ed90600161575a565b61ffff1660e083015260005b600f811015611a72576118126101f46103ff8416615889565b61181d90600161575a565b8360400151828151811061184157634e487b7160e01b600052603260045260246000fd5b61ffff909216602092830291909101909101526101f461186860106303ff00008516615793565b6118729190615889565b61187d90600161575a565b836060015182815181106118a157634e487b7160e01b600052603260045260246000fd5b61ffff9092166020928302919091018201526097906118c7906101ff60201b8516615793565b6118d19190615889565b6118dc9060fa61575a565b8360a00151828151811061190057634e487b7160e01b600052603260045260246000fd5b61ffff9092166020928302919091019091015261192660976101ff603085901c16615889565b6119319060fa61575a565b8360800151828151811061195557634e487b7160e01b600052603260045260246000fd5b61ffff9092166020928302919091019091015261016861197d60406101ff60401b8516615793565b6119879190615889565b61199290600161575a565b8360c0015182815181106119b657634e487b7160e01b600052603260045260246000fd5b61ffff909216602092830291909101909101526119dc60026101ff605085901c16615889565b83602001518281518110611a0057634e487b7160e01b600052603260045260246000fd5b60ff90921660209283029190910190910152611a2560036101ff606085901c16615889565b8351805183908110611a4757634e487b7160e01b600052603260045260246000fd5b60ff9092166020928302919091019091015260029190911c9080611a6a8161586e565b9150506117f9565b50909392505050565b60606000611a8884612740565b6040805160038082526080820190925291925060009190816020015b6060815260200190600190039081611aa45750506040805160038082526080820190925291925060009190602082015b6060815260200190600190039081611ad45750506040805160038082526080820190925291925060009190602082015b6060815260200190600190039081611b0457905050905060005b6003811015611c2957848181518110611b4757634e487b7160e01b600052603260045260246000fd5b6020026020010151848281518110611b6f57634e487b7160e01b600052603260045260246000fd5b6020026020010181905250848181518110611b9a57634e487b7160e01b600052603260045260246000fd5b6020026020010151838281518110611bc257634e487b7160e01b600052603260045260246000fd5b602002602001018190525060405180604001604052806005815260200164776869746560d81b815250828281518110611c0b57634e487b7160e01b600052603260045260246000fd5b60200260200101819052508080611c219061586e565b915050611b1e565b506103de8660e0015161ffff1610611e06576040518060400160405280600781526020016611a1a21ba3199960c91b81525083600081518110611c7c57634e487b7160e01b600052603260045260246000fd5b60200260200101819052506040518060400160405280600781526020016611a29aa29a229960c91b81525083600181518110611cc857634e487b7160e01b600052603260045260246000fd5b6020026020010181905250604051806040016040528060078152602001660466e646ac862760cb1b81525083600281518110611d1457634e487b7160e01b600052603260045260246000fd5b602002602001018190525060405180604001604052806005815260200164626c61636b60d81b81525082600081518110611d5e57634e487b7160e01b600052603260045260246000fd5b6020026020010181905250604051806040016040528060078152602001660234330433043360cc1b81525082600181518110611daa57634e487b7160e01b600052603260045260246000fd5b60200260200101819052506040518060400160405280600781526020016611a29aa29a229960c91b81525082600281518110611df657634e487b7160e01b600052603260045260246000fd5b60200260200101819052506120e3565b6103b68660e0015161ffff1610611fd257604051806040016040528060078152602001660236330633063360cc1b81525083600081518110611e5857634e487b7160e01b600052603260045260246000fd5b60200260200101819052506040518060400160405280600781526020016611b29ab29a329960c91b81525083600181518110611ea457634e487b7160e01b600052603260045260246000fd5b6020026020010181905250604051806040016040528060078152602001660236330633063360cc1b81525083600281518110611ef057634e487b7160e01b600052603260045260246000fd5b602002602001018190525060405180604001604052806005815260200164776869746560d81b81525082600081518110611f3a57634e487b7160e01b600052603260045260246000fd5b6020026020010181905250604051806040016040528060078152602001660234330433043360cc1b81525082600181518110611f8657634e487b7160e01b600052603260045260246000fd5b60200260200101819052506040518060400160405280600781526020016611a1a21ba3199960c91b81525082600281518110611df657634e487b7160e01b600052603260045260246000fd5b6103528660e0015161ffff16106120e3578360008151811061200457634e487b7160e01b600052603260045260246000fd5b60200260200101518160008151811061202d57634e487b7160e01b600052603260045260246000fd5b60200260200101819052508360018151811061205957634e487b7160e01b600052603260045260246000fd5b60200260200101518160018151811061208257634e487b7160e01b600052603260045260246000fd5b6020026020010181905250836002815181106120ae57634e487b7160e01b600052603260045260246000fd5b6020026020010151816002815181106120d757634e487b7160e01b600052603260045260246000fd5b60200260200101819052505b60006120ef84886129fb565b905060006120fc84612d67565b9050600061210a868a612ee0565b9050600061211785613064565b90508383838360405160200161213094939291906141ec565b6040516020818303038152906040529850505050505050505092915050565b606081516000141561216f57505060408051602081019091526000815290565b600060405180606001604052806040815260200161596b604091399050600060038451600261219e919061575a565b6121a89190615793565b6121b39060046157d1565b905060006121c282602061575a565b6001600160401b038111156121e757634e487b7160e01b600052604160045260246000fd5b6040519080825280601f01601f191660200182016040528015612211576020820181803683370190505b509050818152600183018586518101602084015b8183101561227d576003830192508251603f8160121c168501518253600182019150603f81600c1c168501518253600182019150603f8160061c168501518253600182019150603f8116850151825350600101612225565b60038951066001811461229757600281146122a8576122b4565b613d3d60f01b6001198301526122b4565b603d60f81b6000198301525b509398975050505050505050565b60606122cd82612555565b6040516020016122dd91906149f1565b6040516020818303038152906040529050919050565b606060006040518060400160405280600681526020016521b7b6b6b7b760d11b81525090506103de8360e0015161ffff161061234a575060408051808201909152600481526311dbdb1960e21b60208201526123ad565b6103b68360e0015161ffff161061237e575060408051808201909152600681526529b4b63b32b960d11b60208201526123ad565b6103528360e0015161ffff16106123ad5750604080518082019091526005815264111c9a599d60da1b60208201525b6000816123b986613139565b6040516020016123ca9291906153ed565b6040516020818303038152906040529050806040516020016123ec9190613cb8565b6040516020818303038152906040529250505092915050565b600a80546001600160a01b038381166001600160a01b0319831681179093556040519116919082907f8be0079c531659141344cd1fd0a4f28419497f9722a3daafe3b4186f6b6457e090600090a35050565b816001600160a01b0316836001600160a01b031614156124b55760405162461bcd60e51b815260206004820152601960248201527822a9219b99189d1030b8383937bb32903a379031b0b63632b960391b60448201526064016105bf565b6001600160a01b03838116600081815260056020908152604080832094871680845294825291829020805460ff191686151590811790915591519182527f17307eab39ab6107e8899845ad3d59bd9653f200f220920489ca2b5937696c31910160405180910390a3505050565b61252d848484611511565b6125398484848461330a565b610f065760405162461bcd60e51b81526004016105bf90615510565b6060816125795750506040805180820190915260018152600360fc1b602082015290565b8160005b81156125a3578061258d8161586e565b915061259c9050600a83615793565b915061257d565b6000816001600160401b038111156125cb57634e487b7160e01b600052604160045260246000fd5b6040519080825280601f01601f1916602001820160405280156125f5576020820181803683370190505b5090505b84156114825761260a6001836157f0565b9150612617600a86615889565b61262290603061575a565b60f81b81838151811061264557634e487b7160e01b600052603260045260246000fd5b60200101906001600160f81b031916908160001a905350612667600a86615793565b94506125f9565b610ed082826040518060200160405280600081525061340c565b6001600160a01b0383166126e3576126de81600880546000838152600960205260408120829055600182018355919091527ff3f7a9fe364faab93b216da50a3214154f22a0a2b415b23a84c8169e8b636ee30155565b612706565b816001600160a01b0316836001600160a01b03161461270657612706838261343f565b6001600160a01b03821661271d576106f0816134dc565b826001600160a01b0316826001600160a01b0316146106f0576106f082826135b5565b6000818152600c602090815260408083208054825181850281018501909352808352606094938301828280156127bd57602002820191906000526020600020906000905b82829054906101000a900461ffff1661ffff16815260200190600201906020826001010492830192600103820291508084116127845790505b5050506000868152600c602052604080822054815160038082526080820190935295965094919350909150816020015b60608152602001906001900390816127ed579050509050604051806040016040528060078152602001661199191919191960c91b8152508160008151811061284557634e487b7160e01b600052603260045260246000fd5b6020026020010181905250604051806040016040528060078152602001662337373737373760c81b8152508160018151811061289157634e487b7160e01b600052603260045260246000fd5b6020026020010181905250604051806040016040528060078152602001662341414141414160c81b815250816002815181106128dd57634e487b7160e01b600052603260045260246000fd5b602002602001018190525060005b828110156129f257735fbdb2315678afecb367f032d93f642f64180aa36001600160a01b031663e01c8fa185838151811061293657634e487b7160e01b600052603260045260246000fd5b602002602001015161ffff166040518263ffffffff1660e01b815260040161296091815260200190565b60006040518083038186803b15801561297857600080fd5b505afa15801561298c573d6000803e3d6000fd5b505050506040513d6000823e601f3d908101601f191682016040526129b49190810190613aa2565b8282815181106129d457634e487b7160e01b600052603260045260246000fd5b602002602001018190525080806129ea9061586e565b9150506128eb565b50949350505050565b6040805180820190915260168152751e33903334b63616b7b830b1b4ba3c9e91181719911f60511b60208201526060908160005b600f811015612d555784602001518181518110612a5c57634e487b7160e01b600052603260045260246000fd5b602002602001015160ff1660001415612b74578585600001518281518110612a9457634e487b7160e01b600052603260045260246000fd5b602002602001015160ff1681518110612abd57634e487b7160e01b600052603260045260246000fd5b6020026020010151612afd86604001518381518110612aec57634e487b7160e01b600052603260045260246000fd5b602002602001015161ffff16612555565b612b2487606001518481518110612aec57634e487b7160e01b600052603260045260246000fd5b612b4b8860a001518581518110612aec57634e487b7160e01b600052603260045260246000fd5b604051602001612b5e9493929190614cfe565b6040516020818303038152906040529150612d1e565b84602001518181518110612b9857634e487b7160e01b600052603260045260246000fd5b602002602001015160ff1660011415612d1e578585600001518281518110612bd057634e487b7160e01b600052603260045260246000fd5b602002602001015160ff1681518110612bf957634e487b7160e01b600052603260045260246000fd5b6020026020010151612c45600287604001518481518110612c2a57634e487b7160e01b600052603260045260246000fd5b6020026020010151612c3c9190615772565b61ffff16612555565b612c6e600288606001518581518110612c2a57634e487b7160e01b600052603260045260246000fd5b612ca98860a001518581518110612c9557634e487b7160e01b600052603260045260246000fd5b60200260200101516002612c3c91906157a7565b612cd089608001518681518110612c9557634e487b7160e01b600052603260045260246000fd5b612cf78a60c001518781518110612aec57634e487b7160e01b600052603260045260246000fd5b604051602001612d0c96959493929190614be9565b60405160208183030381529060405291505b8282604051602001612d31929190613cd4565b60405160208183030381529060405292508080612d4d9061586e565b915050612a2f565b50816040516020016123ec9190613eea565b6060600082600081518110612d8c57634e487b7160e01b600052603260045260246000fd5b602002602001015183600181518110612db557634e487b7160e01b600052603260045260246000fd5b602002602001015184600081518110612dde57634e487b7160e01b600052603260045260246000fd5b6020026020010151604051602001612df8939291906152b3565b60405160208183030381529060405290506000604051602001612e1a9061513d565b6040516020818303038152906040529050600084600281518110612e4e57634e487b7160e01b600052603260045260246000fd5b602002602001015185600081518110612e7757634e487b7160e01b600052603260045260246000fd5b602002602001015186600281518110612ea057634e487b7160e01b600052603260045260246000fd5b6020026020010151604051602001612eba93929190613f7c565b6040516020818303038152906040529050828282604051602001610fed93929190613d03565b6060600083600081518110612f0557634e487b7160e01b600052603260045260246000fd5b602002602001015184600181518110612f2e57634e487b7160e01b600052603260045260246000fd5b602002602001015185600281518110612f5757634e487b7160e01b600052603260045260246000fd5b6020026020010151604051602001612f7193929190614319565b60405160208183030381529060405290506103b68360e0015161ffff1610610f4a578084600081518110612fb557634e487b7160e01b600052603260045260246000fd5b602002602001015185600181518110612fde57634e487b7160e01b600052603260045260246000fd5b60200260200101518660028151811061300757634e487b7160e01b600052603260045260246000fd5b60200260200101518760008151811061303057634e487b7160e01b600052603260045260246000fd5b602002602001015160405160200161304c959493929190613d46565b60405160208183030381529060405290509392505050565b606060008260008151811061308957634e487b7160e01b600052603260045260246000fd5b60200260200101516040516020016130a19190614e5e565b60405160208183030381529060405290506000836001815181106130d557634e487b7160e01b600052603260045260246000fd5b60200260200101516040516020016130ed91906145da565b604051602081830303815290604052905060008460028151811061312157634e487b7160e01b600052603260045260246000fd5b6020026020010151604051602001612eba91906147bc565b6000818152600c602090815260408083208054825181850281018501909352808352606094938301828280156131b657602002820191906000526020600020906000905b82829054906101000a900461ffff1661ffff168152602001906002019060208260010104928301926001038202915080841161317d5790505b5050506000868152600c60205260408120549394506060925090505b828110156129f2578381815181106131fa57634e487b7160e01b600052603260045260246000fd5b602002602001015161ffff1660001415613213576129f2565b81735fbdb2315678afecb367f032d93f642f64180aa36001600160a01b031663e01c8fa186848151811061325757634e487b7160e01b600052603260045260246000fd5b602002602001015161ffff166040518263ffffffff1660e01b815260040161328191815260200190565b60006040518083038186803b15801561329957600080fd5b505afa1580156132ad573d6000803e3d6000fd5b505050506040513d6000823e601f3d908101601f191682016040526132d59190810190613aa2565b6040516020016132e6929190613f12565b604051602081830303815290604052915080806133029061586e565b9150506131d2565b60006001600160a01b0384163b1561140657604051630a85bd0160e11b81526001600160a01b0385169063150b7a029061334e9033908990889088906004016154a2565b602060405180830381600087803b15801561336857600080fd5b505af1925050508015613398575060408051601f3d908101601f1916820190925261339591810190613a86565b60015b6133f2573d8080156133c6576040519150601f19603f3d011682016040523d82523d6000602084013e6133cb565b606091505b5080516133ea5760405162461bcd60e51b81526004016105bf90615510565b805181602001fd5b6001600160e01b031916630a85bd0160e11b149050611482565b61341683836135f9565b613423600084848461330a565b6106f05760405162461bcd60e51b81526004016105bf90615510565b6000600161344c84610cd7565b61345691906157f0565b6000838152600760205260409020549091508082146134a9576001600160a01b03841660009081526006602090815260408083208584528252808320548484528184208190558352600790915290208190555b5060009182526007602090815260408084208490556001600160a01b039094168352600681528383209183525290812055565b6008546000906134ee906001906157f0565b6000838152600960205260408120546008805493945090928490811061352457634e487b7160e01b600052603260045260246000fd5b90600052602060002001549050806008838154811061355357634e487b7160e01b600052603260045260246000fd5b600091825260208083209091019290925582815260099091526040808220849055858252812055600880548061359957634e487b7160e01b600052603160045260246000fd5b6001900381819060005260206000200160009055905550505050565b60006135c083610cd7565b6001600160a01b039093166000908152600660209081526040808320868452825280832085905593825260079052919091209190915550565b6001600160a01b03821661364f5760405162461bcd60e51b815260206004820181905260248201527f4552433732313a206d696e7420746f20746865207a65726f206164647265737360448201526064016105bf565b6136588161126f565b156136a45760405162461bcd60e51b815260206004820152601c60248201527b115490cdcc8c4e881d1bdad95b88185b1c9958591e481b5a5b9d195960221b60448201526064016105bf565b6136b060008383612688565b6001600160a01b03821660009081526003602052604081208054600192906136d990849061575a565b909155505060008181526002602052604080822080546001600160a01b0319166001600160a01b03861690811790915590518392906000805160206159cb833981519152908290a45050565b82805482825590600052602060002090600f016010900481019282156137c25791602002820160005b8382111561379257833561ffff1683826101000a81548161ffff021916908361ffff160217905550926020019260020160208160010104928301926001030261374e565b80156137c05782816101000a81549061ffff0219169055600201602081600101049283019260010302613792565b505b506137ce92915061381b565b5090565b60405180610100016040528060608152602001606081526020016060815260200160608152602001606081526020016060815260200160608152602001600061ffff1681525090565b5b808211156137ce576000815560010161381c565b60008083601f840112613841578182fd5b5081356001600160401b03811115613857578182fd5b6020830191508360208260051b850101111561387257600080fd5b9250929050565b60006020828403121561388a578081fd5b8135610f4a816158df565b6000602082840312156138a6578081fd5b8151610f4a816158df565b600080604083850312156138c3578081fd5b82356138ce816158df565b915060208301356138de816158df565b809150509250929050565b6000806000606084860312156138fd578081fd5b8335613908816158df565b92506020840135613918816158df565b929592945050506040919091013590565b6000806000806080858703121561393e578081fd5b8435613949816158df565b93506020850135613959816158df565b92506040850135915060608501356001600160401b0381111561397a578182fd5b8501601f8101871361398a578182fd5b803561399d61399882615733565b615703565b8181528860208385010111156139b1578384fd5b81602084016020830137908101602001929092525092959194509250565b600080604083850312156139e1578182fd5b82356139ec816158df565b9150602083013580151581146138de578182fd5b60008060408385031215613a12578182fd5b8235613a1d816158df565b946020939093013593505050565b60008060208385031215613a3d578182fd5b82356001600160401b03811115613a52578283fd5b613a5e85828601613830565b90969095509350505050565b600060208284031215613a7b578081fd5b8135610f4a816158f4565b600060208284031215613a97578081fd5b8151610f4a816158f4565b600060208284031215613ab3578081fd5b81516001600160401b03811115613ac8578182fd5b8201601f81018413613ad8578182fd5b8051613ae661399882615733565b818152856020838501011115613afa578384fd5b613b0b826020830160208601615807565b95945050505050565b600060208284031215613b25578081fd5b813561ffff81168114610f4a578182fd5b600060208284031215613b47578081fd5b5035919050565b600080600060408486031215613b62578081fd5b8335925060208401356001600160401b03811115613b7e578182fd5b613b8a86828701613830565b9497909650939450505050565b60008151808452613baf816020860160208601615807565b601f01601f19169290920160200192915050565b60008151613bd5818560208601615807565b9290920192915050565b7f643d224d3139352e352032343863302033302033372e352033302035322e352081527f30732035322e352d33302035322e352030732d33372e352033302d35322e352060208201527f30732d35322e352d33302d35322e352030222066696c6c3d226e6f6e65223e006040820152605f0190565b7f3c616e696d617465206174747269627574654e616d653d2266696c6c222076618152716c7565733d227472616e73706172656e743b60701b602082015260320190565b603b60f81b815260010190565b661e17b830ba341f60c91b815260070190565b60008251613cca818460208701615807565b9190910192915050565b60008351613ce6818460208801615807565b835190830190613cfa818360208801615807565b01949350505050565b60008451613d15818460208901615807565b845190830190613d29818360208901615807565b8451910190613d3c818360208801615807565b0195945050505050565b60008651613d58818460208b01615807565b80830190507f3c616e696d61746520626567696e3d22702e626567696e3b712e626567696e3b81527f722e626567696e2220617474726962757465547970653d22584d4c222061747460208201527f7269627574654e616d653d227374726f6b652d646173686f666673657422206660408201527f726f6d3d22302220746f3d2232333022206475723d223173222066696c6c3d22606082015269333932b2bd329110179f60b11b60808201527f3c616e696d61746520626567696e3d22732e626567696e3b732e656e64222061608a8201527f7474726962757465547970653d22584d4c22206174747269627574654e616d6560aa820152711e9139ba3937b5b291103b30b63ab2b99e9160711b60ca8201528651613e7f8160dc840160208b01615807565b613edd613eb6613eb0613ea5613eaa613ea5613e9f60dc888a0101613c98565b8d613bc3565b613c98565b8a613bc3565b87613bc3565b7a1110323ab91e911b3991103334b6361e91333932b2bd329110179f60291b8152601b0190565b9998505050505050505050565b60008251613efc818460208701615807565b631e17b39f60e11b920191825250600401919050565b60008351613f24818460208801615807565b835190830190613f38818360208801615807565b600b60fa1b9101908152600101949350505050565b60008551613f5f818460208a01615807565b919091019384525060208301919091526040820152606001919050565b7f3c616e696d61746520626567696e3d22732e656e64222061747472696275746581527f547970653d22584d4c22206174747269627574654e616d653d227374726f6b6560208201526911103b30b63ab2b99e9160b11b604082015260008451613fed81604a850160208901615807565b8083019050603b60f81b80604a830152855161401081604b850160208a01615807565b604b920191820152835161402b81604c840160208801615807565b791110323ab91e911a3991103334b6361e91333932b2bd3291179f60311b9101604c8101919091527f3c616e696d6174652069643d22612220626567696e3d22732e626567696e3b7360668201527f2e626567696e2b31733b732e626567696e2b32733b732e626567696e2b33733b60868201527f732e626567696e2b34733b732e626567696e2b35733b732e626567696e2b367360a682015261011160f51b60c68201527f617474726962757465547970653d22584d4c22206174747269627574654e616d60c88201527f653d227374726f6b652d7769647468222076616c7565733d2231363b32303b3160e88201527b1b1110323ab91e9118b991103334b6361e91333932b2bd329110179f60211b6101088201526141e261012482017f3c616e696d6174652069643d22732220617474726962757465547970653d225881527f4d4c22206174747269627574654e616d653d227374726f6b652d646173686f6660208201527f667365742220626567696e3d2230733b732e656e642220746f3d20222d313830604082015279181110323ab91e911b39911010179f1e17b830ba341f1e17b39f60311b6060820152607a0190565b9695505050505050565b7f3c73766720786d6c6e733d22687474703a2f2f7777772e77332e6f72672f323081527f30302f7376672220786d6c6e733a786c696e6b3d22687474703a2f2f7777772e60208201527f77332e6f72672f313939392f786c696e6b222077696474683d2235303022206860408201527f65696768743d22353030222076696577626f783d22302030203530302035303060608201527f22207374796c653d226261636b67726f756e642d636f6c6f723a23313131313160808201526218911f60e91b60a0820152600085516142c88160a3850160208a01615807565b8551908301906142df8160a3840160208a01615807565b85519101906142f58160a3840160208901615807565b845191019061430b8160a3840160208801615807565b0160a3019695505050505050565b691e339034b21e9131111f60b11b81527f3c7061746820643d224d3134342e342038392e3331682d33312e33632d31362e600a8201527f38382033322e353720302037312e333820302037312e33386833312e33632d33602a8201527f302e39352d333520302d37312e333820302d37312e33385a6d2d31332e313720604a8201527f36332e3736682d31312e3635732d31322e34372d31372e333820302d35352e36606a8201527f386831312e3635732d32302e382032352e313820302035352e36385a22207472608a8201527f616e73666f726d3d226d61747269782832203020302032202d3935203029222060aa8201527f7374726f6b653d22626c61636b222066696c6c2d6f7061636974793d22302e3960ca82015261011160f51b60ea8201527f7374726f6b652d77696474683d222e3722207374726f6b652d6461736861727260ec8201527f61793d22323022207374726f6b652d646173686f66667365743d223130223e0061010c8201527f3c616e696d6174652069643d22702220626567696e3d22732e626567696e2b3261012b8201526000805160206159ab83398151915261014b82015265626c61636b3b60d01b61016b8201526000613b0b6145696145d4614588826145636145176144f96101718a01613e9f565b711db13630b1b59110323ab91e91193991179f60711b815260120190565b7f3c616e696d6174652069643d22712220626567696e3d22732e626567696e2b3481526000805160206159ab833981519152602082015265626c61636b3b60d01b604082015260460190565b89613bc3565b721db13630b1b59110323ab91e9119399110179f60691b815260130190565b7f3c616e696d6174652069643d22722220626567696e3d22732e626567696e2b3681526000805160206159ab833981519152602082015265626c61636b3b60d01b604082015260460190565b85613bc3565b6501e3830ba34160d51b81527f643d224d203130372e33313739203131372e3534353763202d31332e3339383560068201527f2032352e3835323420302035362e36353820302035362e363538206820362e3860268201527f37332063202d302e31353335202d302e34303637202d392e37373234202d323660468201527701718989c1a10171819981a90169a9b17191b1a1c103d11160451b60668201527f7472616e73666f726d3d227472616e736c617465282d38382c36302920736361607e8201527f6c6528312e332c312e332922207374726f6b652d6f7061636974793d222e3335609e8201527f222066696c6c2d6f7061636974793d222e35222066696c6c3d227472616e737060be8201526630b932b73a111f60c91b60de820152600061470960e58301613c54565b8351614719818360208801615807565b7f3b7472616e73706172656e742220626567696e3d22772e626567696e2b2e327391019081526b1110323ab91e9118b991179f60a11b602082015260008051602061592b833981519152602c8201526000805160206159eb833981519152604c8201527f6172656e742220626567696e3d22772e626567696e2b2e327322206475723d22606c8201526418b991179f60d91b608c82015261148260918201613ca5565b6501e3830ba34160d51b81527f643d224d3130372e33313739203131372e3534353720632d31332e333938352060068201527f32352e3835323420302035362e36353820302035362e3635382068362e38373360268201527f20632d302e313533352d302e343036372d392e373732342d32362e313138342060468201526f0171819981a969a9b17191b1a1c3d11160851b60668201527f7472616e73666f726d3d227472616e736c617465282d38322c3130342920736360768201527f616c6528312c312922207374726f6b652d6f7061636974793d222e303522206660968201527f696c6c2d6f7061636974793d22302e33222066696c6c3d227472616e7370617260b68201526432b73a111f60d91b60d682015260006148e160db8301613c54565b83516148f1818360208801615807565b7f3b7472616e73706172656e742220626567696e3d22772e626567696e2b2e347391019081526b1110323ab91e9118b991179f60a11b602082015260008051602061592b833981519152602c8201526000805160206159eb833981519152604c8201527f6172656e742220626567696e3d22772e626567696e2b2e347322206475723d22606c8201526418b991179f60d91b608c8201527f3c2f706174683e3c2f673e3c75736520687265663d2223622220783d222d353060918201527f302220793d222d35303022207472616e73666f726d3d22726f7461746528313860b18201526a181491179f1e17b9bb339f60a91b60d182015260dc8101611482565b7f2265787465726e616c5f75726c223a2268747470733a2f2f73796e6378636f6c8152681bdc9ccb9e1e5e888b60ba1b60208201527f226465736372697074696f6e223a225468652053594e4378436f6c6f7273206160298201527f72652067656e65726174656420616e642073746f72656420656e746972656c7960498201527f206f6e2d636861696e2c20616e64206d6179206265206c696e6b65642077697460698201527f6820757020746f20332054484520434f4c4f5253207072696d6974697665732060898201526f3337b91032b834b19032b33332b1ba1760811b60a98201526c5c6e546f6b656e2069643a202360981b60b982015260008251614b028160c6850160208701615807565b601160f91b60c693909101928301525060c701919050565b743230ba309d30b8383634b1b0ba34b7b717b539b7b760591b8152607b60f81b6015820152681134b6b0b3b2911d1160b91b60168201527919185d184e9a5b5859d94bdcdd99cade1b5b0ed8985cd94d8d0b60321b601f8201528351600090614b8a816039850160208901615807565b61088b60f21b6039918401918201528451614bac81603b840160208901615807565b600b60fa1b603b92909101918201528351614bce81603c840160208801615807565b607d60f81b603c9290910191820152603d0195945050505050565b6b1e3932b1ba103334b6361e9160a11b81528651600090614c1181600c850160208c01615807565b6411103c1e9160d91b600c918401918201528751614c36816011840160208c01615807565b6411103c9e9160d91b601192909101918201528651614c5c816016840160208b01615807565b6811103bb4b23a341e9160b91b601692909101918201528551614c8681601f840160208a01615807565b6911103432b4b3b43a1e9160b11b601f92909101918201528451614cb1816029840160208901615807565b614cf0614ce0613eb06029848601017304440e8e4c2dce6ccdee4da7a44e4dee8c2e8ca560631b815260140190565b631491179f60e11b815260040190565b9a9950505050505050505050565b6d1e31b4b931b632903334b6361e9160911b81528451600090614d2881600e850160208a01615807565b65111031bc1e9160d11b600e918401918201528551614d4e816014840160208a01615807565b65111031bc9e9160d11b601492909101918201528451614d7581601a840160208901615807565b641110391e9160d91b601a92909101918201528351614d9b81601f840160208801615807565b6211179f60e91b601f92909101918201526022019695505050505050565b607b60f81b8152681134b6b0b3b2911d1160b91b60018201527919185d184e9a5b5859d94bdcdd99cade1b5b0ed8985cd94d8d0b60321b600a8201528351600090614e0b816024850160208901615807565b61088b60f21b6024918401918201528451614e2d816026840160208901615807565b8451910190614e43816026840160208801615807565b607d60f81b6026929091019182015260270195945050505050565b7f3c2f706174683e3c7061746820643d224d3130372e33313739203131372e353481527f3537632d31332e333938352032352e3835323420302035362e3635382030203560208201527f362e363538206820362e383733632d302e313533352d302e343036372d392e3760408201527b01b991a16991b1718989c1a10171819981a969a9b17191b1a1c3d11160251b60608201527f7472616e73666f726d3d227472616e736c617465282d38352c31352920736361607c8201527f6c6528312e362c312e362922207374726f6b652d6f7061636974793d222e3722609c8201527f2066696c6c2d6f7061636974793d222e37222066696c6c3d227472616e73706160bc8201527f72656e74223e3c616e696d6174652069643d227722206174747269627574654e60dc8201527f616d653d2266696c6c222076616c7565733d227472616e73706172656e743b0060fc820152600061011b8351614fc78183860160208801615807565b7f3b7472616e73706172656e742220626567696e3d22702e626567696e2b2e3473908401828101919091527f3b712e626567696e2b2e34733b722e626567696e2b2e347322206475723d223161013b820152633991179f60e11b61015b8201527f3c616e696d61746520626567696e3d22772e626567696e22206174747269627561015f8201527f74654e616d653d227374726f6b65222076616c7565733d227472616e7370617261017f8201527f656e743b626c61636b3b7472616e73706172656e7422206475723d223173222f61019f820152601f60f91b6101bf820152613b0b6101c08201613ca5565b7f646174613a6170706c69636174696f6e2f6a736f6e3b6261736536342c0000008152600082516150ec81601d850160208701615807565b91909101601d0192915050565b7b19185d184e985c1c1b1a58d85d1a5bdb8bda9cdbdb8ed8985cd94d8d60221b81526000825161513081601c850160208701615807565b91909101601c0192915050565b60008051602061590b833981519152815260008051602061594b833981519152602082018190527f6b652d646173686172726179222076616c7565733d22303b35303b3022206475604083015275391e911b3991103334b6361e91333932b2bd3291179f60511b60608301527f3c616e696d61746520626567696e3d22612e626567696e222061747472696275607683015260968201527f6b652d7769647468222076616c7565733d2231363b32303b313622206475723d60b6820152731118b991103334b6361e91333932b2bd3291179f60611b60d68201527f3c2f706174683e3c706174682069643d22696e66696e6974795f32222073747260ea8201527f6f6b652d6461736861727261793d2233303022207374726f6b652d646173686f61010a8201527f66667365743d2233303022207374726f6b653d2223464631313131222073747261012a8201526e037b5b296bbb4b23a341e91189b111608d1b61014a82015260006104bf6101598301613bdf565b7f3c672069643d22696e66696e6974795f31223e3c706174682069643d22696e6681527f696e69747922207374726f6b652d6461736861727261793d223022207374726f60208201527f6b652d646173686f66667365743d223022207374726f6b652d77696474683d226040820152630189b11160e51b6060820152600061533d60648301613bdf565b60008051602061590b833981519152815260008051602061594b83398151915260208201526c35b29110103b30b63ab2b99e9160991b6040820152855161538b81604d840160208a01615807565b808201915050603b60f81b80604d83015285516153af81604e850160208a01615807565b604e9201918201526141e26153c7604f830186613bc3565b791110323ab91e911a3991103334b6361e91333932b2bd3291179f60311b8152601a0190565b6d2261747472696275746573223a5b60901b81527f7b2274726169745f74797065223a22526172697479222c2276616c7565223a22600e820152825160009061543d81602e850160208801615807565b62089f4b60ea1b602e918401918201527f7b2274726169745f74797065223a22436f6c6f7273222c2276616c7565223a2260318201528351615486816051840160208801615807565b62227d5d60e81b60519290910191820152605401949350505050565b6001600160a01b03858116825284166020820152604081018390526080606082018190526000906141e290830184613b97565b602081526000610f4a6020830184613b97565b6020808252600e908201526d4578636565647320737570706c7960901b604082015260600190565b60208082526032908201527f4552433732313a207472616e7366657220746f206e6f6e20455243373231526560408201527131b2b4bb32b91034b6b83632b6b2b73a32b960711b606082015260800190565b6020808252602c908201527f4552433732313a206f70657261746f7220717565727920666f72206e6f6e657860408201526b34b9ba32b73a103a37b5b2b760a11b606082015260800190565b602080825260129082015271496e73756666696369656e742066756e647360701b604082015260600190565b6020808252818101527f4f776e61626c653a2063616c6c6572206973206e6f7420746865206f776e6572604082015260600190565b60208082526031908201527f4552433732313a207472616e736665722063616c6c6572206973206e6f74206f6040820152701ddb995c881b9bdc88185c1c1c9bdd9959607a1b606082015260800190565b6020808252601d908201527f2320434f4c4f525320746f6b656e496473206d757374206265203c3d33000000604082015260600190565b6020808252601f908201527f5265656e7472616e637947756172643a207265656e7472616e742063616c6c00604082015260600190565b6020808252601b908201527a21a7a627a929903737ba1037bbb732b210313c9039b2b73232b91760291b604082015260600190565b604051601f8201601f191681016001600160401b038111828210171561572b5761572b6158c9565b604052919050565b60006001600160401b0382111561574c5761574c6158c9565b50601f01601f191660200190565b6000821982111561576d5761576d61589d565b500190565b600061ffff80841680615787576157876158b3565b92169190910492915050565b6000826157a2576157a26158b3565b500490565b600061ffff808316818516818304811182151516156157c8576157c861589d565b02949350505050565b60008160001904831182151516156157eb576157eb61589d565b500290565b6000828210156158025761580261589d565b500390565b60005b8381101561582257818101518382015260200161580a565b83811115610f065750506000910152565b600181811c9082168061584757607f821691505b6020821081141561586857634e487b7160e01b600052602260045260246000fd5b50919050565b60006000198214156158825761588261589d565b5060010190565b600082615898576158986158b3565b500690565b634e487b7160e01b600052601160045260246000fd5b634e487b7160e01b600052601260045260246000fd5b634e487b7160e01b600052604160045260246000fd5b6001600160a01b038116811461121c57600080fd5b6001600160e01b03198116811461121c57600080fdfe3c616e696d61746520626567696e3d22732e626567696e2220617474726962753c616e696d617465206174747269627574654e616d653d227374726f6b6522207465547970653d22584d4c22206174747269627574654e616d653d227374726f4142434445464748494a4b4c4d4e4f505152535455565758595a6162636465666768696a6b6c6d6e6f707172737475767778797a303132333435363738392b2f7322206174747269627574654e616d653d2266696c6c222076616c7565733d22ddf252ad1be2c89b69c2b068fc378daa952ba7f163c4a11628f55a4df523b3ef76616c7565733d227472616e73706172656e743b626c61636b3b7472616e7370a264697066735822122086086993968ed1b2803afa8e8f4ae6c1fc129e2d5c7727c444563b1d6e012e0164736f6c63430008040033",
  "devdoc": {
    "details": "Extends ERC721 Non-Fungible Token Standard basic implementation",
    "kind": "dev",
    "methods": {
      "approve(address,uint256)": {
        "details": "See {IERC721-approve}."
      },
      "balanceOf(address)": {
        "details": "See {IERC721-balanceOf}."
      },
      "getApproved(uint256)": {
        "details": "See {IERC721-getApproved}."
      },
      "isApprovedForAll(address,address)": {
        "details": "See {IERC721-isApprovedForAll}."
      },
      "name()": {
        "details": "See {IERC721Metadata-name}."
      },
      "owner()": {
        "details": "Returns the address of the current owner."
      },
      "ownerOf(uint256)": {
        "details": "See {IERC721-ownerOf}."
      },
      "renounceOwnership()": {
        "details": "Leaves the contract without owner. It will not be possible to call `onlyOwner` functions anymore. Can only be called by the current owner. NOTE: Renouncing ownership will leave the contract without an owner, thereby removing any functionality that is only available to the owner."
      },
      "safeTransferFrom(address,address,uint256)": {
        "details": "See {IERC721-safeTransferFrom}."
      },
      "safeTransferFrom(address,address,uint256,bytes)": {
        "details": "See {IERC721-safeTransferFrom}."
      },
      "setApprovalForAll(address,bool)": {
        "details": "See {IERC721-setApprovalForAll}."
      },
      "supportsInterface(bytes4)": {
        "details": "See {IERC165-supportsInterface}."
      },
      "symbol()": {
        "details": "See {IERC721Metadata-symbol}."
      },
      "tokenByIndex(uint256)": {
        "details": "See {IERC721Enumerable-tokenByIndex}."
      },
      "tokenOfOwnerByIndex(address,uint256)": {
        "details": "See {IERC721Enumerable-tokenOfOwnerByIndex}."
      },
      "tokenURI(uint256)": {
        "details": "See {IERC721Metadata-tokenURI}."
      },
      "totalSupply()": {
        "details": "See {IERC721Enumerable-totalSupply}."
      },
      "transferFrom(address,address,uint256)": {
        "details": "See {IERC721-transferFrom}."
      },
      "transferOwnership(address)": {
        "details": "Transfers ownership of the contract to a new account (`newOwner`). Can only be called by the current owner."
      }
    },
    "title": "Sync x Colors contract",
    "version": 1
  },
  "userdoc": {
    "kind": "user",
    "methods": {
      "mint(uint16[])": {
        "notice": "Mint one SYNCxCOLOR NFT"
      },
      "mintMany(uint256,uint16[])": {
        "notice": "Mint multiple SYNCxCOLOR NFTs"
      },
      "updateColors(uint256,uint16[])": {
        "notice": "Store mapping between tokenId and applied tokenIdColors"
      }
    },
    "version": 1
  },
  "storageLayout": {
    "storage": [
      {
        "astId": 262,
        "contract": "contracts/SyncXColors.sol:Sync",
        "label": "_name",
        "offset": 0,
        "slot": "0",
        "type": "t_string_storage"
      },
      {
        "astId": 264,
        "contract": "contracts/SyncXColors.sol:Sync",
        "label": "_symbol",
        "offset": 0,
        "slot": "1",
        "type": "t_string_storage"
      },
      {
        "astId": 268,
        "contract": "contracts/SyncXColors.sol:Sync",
        "label": "_owners",
        "offset": 0,
        "slot": "2",
        "type": "t_mapping(t_uint256,t_address)"
      },
      {
        "astId": 272,
        "contract": "contracts/SyncXColors.sol:Sync",
        "label": "_balances",
        "offset": 0,
        "slot": "3",
        "type": "t_mapping(t_address,t_uint256)"
      },
      {
        "astId": 276,
        "contract": "contracts/SyncXColors.sol:Sync",
        "label": "_tokenApprovals",
        "offset": 0,
        "slot": "4",
        "type": "t_mapping(t_uint256,t_address)"
      },
      {
        "astId": 282,
        "contract": "contracts/SyncXColors.sol:Sync",
        "label": "_operatorApprovals",
        "offset": 0,
        "slot": "5",
        "type": "t_mapping(t_address,t_mapping(t_address,t_bool))"
      },
      {
        "astId": 1216,
        "contract": "contracts/SyncXColors.sol:Sync",
        "label": "_ownedTokens",
        "offset": 0,
        "slot": "6",
        "type": "t_mapping(t_address,t_mapping(t_uint256,t_uint256))"
      },
      {
        "astId": 1220,
        "contract": "contracts/SyncXColors.sol:Sync",
        "label": "_ownedTokensIndex",
        "offset": 0,
        "slot": "7",
        "type": "t_mapping(t_uint256,t_uint256)"
      },
      {
        "astId": 1223,
        "contract": "contracts/SyncXColors.sol:Sync",
        "label": "_allTokens",
        "offset": 0,
        "slot": "8",
        "type": "t_array(t_uint256)dyn_storage"
      },
      {
        "astId": 1227,
        "contract": "contracts/SyncXColors.sol:Sync",
        "label": "_allTokensIndex",
        "offset": 0,
        "slot": "9",
        "type": "t_mapping(t_uint256,t_uint256)"
      },
      {
        "astId": 7,
        "contract": "contracts/SyncXColors.sol:Sync",
        "label": "_owner",
        "offset": 0,
        "slot": "10",
        "type": "t_address"
      },
      {
        "astId": 207,
        "contract": "contracts/SyncXColors.sol:Sync",
        "label": "_status",
        "offset": 0,
        "slot": "11",
        "type": "t_uint256"
      },
      {
        "astId": 2372,
        "contract": "contracts/SyncXColors.sol:Sync",
        "label": "_colorTokenIds",
        "offset": 0,
        "slot": "12",
        "type": "t_mapping(t_uint256,t_array(t_uint16)dyn_storage)"
      },
      {
        "astId": 2376,
        "contract": "contracts/SyncXColors.sol:Sync",
        "label": "_seed",
        "offset": 0,
        "slot": "13",
        "type": "t_mapping(t_uint256,t_uint256)"
      }
    ],
    "types": {
      "t_address": {
        "encoding": "inplace",
        "label": "address",
        "numberOfBytes": "20"
      },
      "t_array(t_uint16)dyn_storage": {
        "base": "t_uint16",
        "encoding": "dynamic_array",
        "label": "uint16[]",
        "numberOfBytes": "32"
      },
      "t_array(t_uint256)dyn_storage": {
        "base": "t_uint256",
        "encoding": "dynamic_array",
        "label": "uint256[]",
        "numberOfBytes": "32"
      },
      "t_bool": {
        "encoding": "inplace",
        "label": "bool",
        "numberOfBytes": "1"
      },
      "t_mapping(t_address,t_bool)": {
        "encoding": "mapping",
        "key": "t_address",
        "label": "mapping(address => bool)",
        "numberOfBytes": "32",
        "value": "t_bool"
      },
      "t_mapping(t_address,t_mapping(t_address,t_bool))": {
        "encoding": "mapping",
        "key": "t_address",
        "label": "mapping(address => mapping(address => bool))",
        "numberOfBytes": "32",
        "value": "t_mapping(t_address,t_bool)"
      },
      "t_mapping(t_address,t_mapping(t_uint256,t_uint256))": {
        "encoding": "mapping",
        "key": "t_address",
        "label": "mapping(address => mapping(uint256 => uint256))",
        "numberOfBytes": "32",
        "value": "t_mapping(t_uint256,t_uint256)"
      },
      "t_mapping(t_address,t_uint256)": {
        "encoding": "mapping",
        "key": "t_address",
        "label": "mapping(address => uint256)",
        "numberOfBytes": "32",
        "value": "t_uint256"
      },
      "t_mapping(t_uint256,t_address)": {
        "encoding": "mapping",
        "key": "t_uint256",
        "label": "mapping(uint256 => address)",
        "numberOfBytes": "32",
        "value": "t_address"
      },
      "t_mapping(t_uint256,t_array(t_uint16)dyn_storage)": {
        "encoding": "mapping",
        "key": "t_uint256",
        "label": "mapping(uint256 => uint16[])",
        "numberOfBytes": "32",
        "value": "t_array(t_uint16)dyn_storage"
      },
      "t_mapping(t_uint256,t_uint256)": {
        "encoding": "mapping",
        "key": "t_uint256",
        "label": "mapping(uint256 => uint256)",
        "numberOfBytes": "32",
        "value": "t_uint256"
      },
      "t_string_storage": {
        "encoding": "bytes",
        "label": "string",
        "numberOfBytes": "32"
      },
      "t_uint16": {
        "encoding": "inplace",
        "label": "uint16",
        "numberOfBytes": "2"
      },
      "t_uint256": {
        "encoding": "inplace",
        "label": "uint256",
        "numberOfBytes": "32"
      }
    }
  }
}