{
  "address": "0x5FbDB2315678afecb367f032d93F642f64180aa3",
  "abi": [
    {
      "inputs": [],
      "stateMutability": "nonpayable",
      "type": "constructor"
    },
    {
      "anonymous": false,
      "inputs": [
        {
          "indexed": true,
          "internalType": "address",
          "name": "owner",
          "type": "address"
        },
        {
          "indexed": true,
          "internalType": "address",
          "name": "approved",
          "type": "address"
        },
        {
          "indexed": true,
          "internalType": "uint256",
          "name": "tokenId",
          "type": "uint256"
        }
      ],
      "name": "Approval",
      "type": "event"
    },
    {
      "anonymous": false,
      "inputs": [
        {
          "indexed": true,
          "internalType": "address",
          "name": "owner",
          "type": "address"
        },
        {
          "indexed": true,
          "internalType": "address",
          "name": "operator",
          "type": "address"
        },
        {
          "indexed": false,
          "internalType": "bool",
          "name": "approved",
          "type": "bool"
        }
      ],
      "name": "ApprovalForAll",
      "type": "event"
    },
    {
      "anonymous": false,
      "inputs": [
        {
          "indexed": true,
          "internalType": "address",
          "name": "previousOwner",
          "type": "address"
        },
        {
          "indexed": true,
          "internalType": "address",
          "name": "newOwner",
          "type": "address"
        }
      ],
      "name": "OwnershipTransferred",
      "type": "event"
    },
    {
      "anonymous": false,
      "inputs": [
        {
          "indexed": true,
          "internalType": "address",
          "name": "from",
          "type": "address"
        },
        {
          "indexed": true,
          "internalType": "address",
          "name": "to",
          "type": "address"
        },
        {
          "indexed": true,
          "internalType": "uint256",
          "name": "tokenId",
          "type": "uint256"
        }
      ],
      "name": "Transfer",
      "type": "event"
    },
    {
      "inputs": [],
      "name": "MAX_COLORS",
      "outputs": [
        {
          "internalType": "uint256",
          "name": "",
          "type": "uint256"
        }
      ],
      "stateMutability": "view",
      "type": "function"
    },
    {
      "inputs": [],
      "name": "PROVENANCE_HASH",
      "outputs": [
        {
          "internalType": "string",
          "name": "",
          "type": "string"
        }
      ],
      "stateMutability": "view",
      "type": "function"
    },
    {
      "inputs": [
        {
          "internalType": "address",
          "name": "to",
          "type": "address"
        },
        {
          "internalType": "uint256",
          "name": "tokenId",
          "type": "uint256"
        }
      ],
      "name": "approve",
      "outputs": [],
      "stateMutability": "nonpayable",
      "type": "function"
    },
    {
      "inputs": [
        {
          "internalType": "address",
          "name": "owner",
          "type": "address"
        }
      ],
      "name": "balanceOf",
      "outputs": [
        {
          "internalType": "uint256",
          "name": "",
          "type": "uint256"
        }
      ],
      "stateMutability": "view",
      "type": "function"
    },
    {
      "inputs": [
        {
          "internalType": "uint32",
          "name": "",
          "type": "uint32"
        }
      ],
      "name": "existingHexColors",
      "outputs": [
        {
          "internalType": "bool",
          "name": "",
          "type": "bool"
        }
      ],
      "stateMutability": "view",
      "type": "function"
    },
    {
      "inputs": [
        {
          "internalType": "uint256",
          "name": "tokenId",
          "type": "uint256"
        }
      ],
      "name": "getApproved",
      "outputs": [
        {
          "internalType": "address",
          "name": "",
          "type": "address"
        }
      ],
      "stateMutability": "view",
      "type": "function"
    },
    {
      "inputs": [
        {
          "internalType": "uint256",
          "name": "tokenId",
          "type": "uint256"
        }
      ],
      "name": "getBase64TokenSVG",
      "outputs": [
        {
          "internalType": "string",
          "name": "",
          "type": "string"
        }
      ],
      "stateMutability": "view",
      "type": "function"
    },
    {
      "inputs": [
        {
          "internalType": "uint256",
          "name": "tokenId",
          "type": "uint256"
        }
      ],
      "name": "getBlue",
      "outputs": [
        {
          "internalType": "uint32",
          "name": "",
          "type": "uint32"
        }
      ],
      "stateMutability": "view",
      "type": "function"
    },
    {
      "inputs": [
        {
          "internalType": "uint256",
          "name": "tokenId",
          "type": "uint256"
        }
      ],
      "name": "getGreen",
      "outputs": [
        {
          "internalType": "uint32",
          "name": "",
          "type": "uint32"
        }
      ],
      "stateMutability": "view",
      "type": "function"
    },
    {
      "inputs": [
        {
          "internalType": "uint256",
          "name": "tokenId",
          "type": "uint256"
        }
      ],
      "name": "getHexColor",
      "outputs": [
        {
          "internalType": "string",
          "name": "",
          "type": "string"
        }
      ],
      "stateMutability": "view",
      "type": "function"
    },
    {
      "inputs": [
        {
          "internalType": "uint256",
          "name": "tokenId",
          "type": "uint256"
        }
      ],
      "name": "getRGB",
      "outputs": [
        {
          "internalType": "string",
          "name": "",
          "type": "string"
        }
      ],
      "stateMutability": "view",
      "type": "function"
    },
    {
      "inputs": [
        {
          "internalType": "uint256",
          "name": "tokenId",
          "type": "uint256"
        }
      ],
      "name": "getRed",
      "outputs": [
        {
          "internalType": "uint32",
          "name": "",
          "type": "uint32"
        }
      ],
      "stateMutability": "view",
      "type": "function"
    },
    {
      "inputs": [
        {
          "internalType": "uint256",
          "name": "tokenId",
          "type": "uint256"
        }
      ],
      "name": "getTokenMetadata",
      "outputs": [
        {
          "internalType": "string",
          "name": "",
          "type": "string"
        }
      ],
      "stateMutability": "view",
      "type": "function"
    },
    {
      "inputs": [
        {
          "internalType": "uint256",
          "name": "tokenId",
          "type": "uint256"
        }
      ],
      "name": "getTokenSVG",
      "outputs": [
        {
          "internalType": "string",
          "name": "",
          "type": "string"
        }
      ],
      "stateMutability": "view",
      "type": "function"
    },
    {
      "inputs": [
        {
          "internalType": "address",
          "name": "owner",
          "type": "address"
        },
        {
          "internalType": "address",
          "name": "operator",
          "type": "address"
        }
      ],
      "name": "isApprovedForAll",
      "outputs": [
        {
          "internalType": "bool",
          "name": "",
          "type": "bool"
        }
      ],
      "stateMutability": "view",
      "type": "function"
    },
    {
      "inputs": [
        {
          "internalType": "uint256",
          "name": "numberOfTokens",
          "type": "uint256"
        }
      ],
      "name": "mintNextColors",
      "outputs": [],
      "stateMutability": "nonpayable",
      "type": "function"
    },
    {
      "inputs": [],
      "name": "name",
      "outputs": [
        {
          "internalType": "string",
          "name": "",
          "type": "string"
        }
      ],
      "stateMutability": "view",
      "type": "function"
    },
    {
      "inputs": [],
      "name": "owner",
      "outputs": [
        {
          "internalType": "address",
          "name": "",
          "type": "address"
        }
      ],
      "stateMutability": "view",
      "type": "function"
    },
    {
      "inputs": [
        {
          "internalType": "uint256",
          "name": "tokenId",
          "type": "uint256"
        }
      ],
      "name": "ownerOf",
      "outputs": [
        {
          "internalType": "address",
          "name": "",
          "type": "address"
        }
      ],
      "stateMutability": "view",
      "type": "function"
    },
    {
      "inputs": [],
      "name": "renounceOwnership",
      "outputs": [],
      "stateMutability": "nonpayable",
      "type": "function"
    },
    {
      "inputs": [
        {
          "internalType": "address",
          "name": "from",
          "type": "address"
        },
        {
          "internalType": "address",
          "name": "to",
          "type": "address"
        },
        {
          "internalType": "uint256",
          "name": "tokenId",
          "type": "uint256"
        }
      ],
      "name": "safeTransferFrom",
      "outputs": [],
      "stateMutability": "nonpayable",
      "type": "function"
    },
    {
      "inputs": [
        {
          "internalType": "address",
          "name": "from",
          "type": "address"
        },
        {
          "internalType": "address",
          "name": "to",
          "type": "address"
        },
        {
          "internalType": "uint256",
          "name": "tokenId",
          "type": "uint256"
        },
        {
          "internalType": "bytes",
          "name": "_data",
          "type": "bytes"
        }
      ],
      "name": "safeTransferFrom",
      "outputs": [],
      "stateMutability": "nonpayable",
      "type": "function"
    },
    {
      "inputs": [
        {
          "internalType": "address",
          "name": "operator",
          "type": "address"
        },
        {
          "internalType": "bool",
          "name": "approved",
          "type": "bool"
        }
      ],
      "name": "setApprovalForAll",
      "outputs": [],
      "stateMutability": "nonpayable",
      "type": "function"
    },
    {
      "inputs": [
        {
          "internalType": "string",
          "name": "provenanceHash",
          "type": "string"
        }
      ],
      "name": "setProvenanceHash",
      "outputs": [],
      "stateMutability": "nonpayable",
      "type": "function"
    },
    {
      "inputs": [
        {
          "internalType": "bytes4",
          "name": "interfaceId",
          "type": "bytes4"
        }
      ],
      "name": "supportsInterface",
      "outputs": [
        {
          "internalType": "bool",
          "name": "",
          "type": "bool"
        }
      ],
      "stateMutability": "view",
      "type": "function"
    },
    {
      "inputs": [],
      "name": "symbol",
      "outputs": [
        {
          "internalType": "string",
          "name": "",
          "type": "string"
        }
      ],
      "stateMutability": "view",
      "type": "function"
    },
    {
      "inputs": [
        {
          "internalType": "uint256",
          "name": "index",
          "type": "uint256"
        }
      ],
      "name": "tokenByIndex",
      "outputs": [
        {
          "internalType": "uint256",
          "name": "",
          "type": "uint256"
        }
      ],
      "stateMutability": "view",
      "type": "function"
    },
    {
      "inputs": [
        {
          "internalType": "address",
          "name": "owner",
          "type": "address"
        },
        {
          "internalType": "uint256",
          "name": "index",
          "type": "uint256"
        }
      ],
      "name": "tokenOfOwnerByIndex",
      "outputs": [
        {
          "internalType": "uint256",
          "name": "",
          "type": "uint256"
        }
      ],
      "stateMutability": "view",
      "type": "function"
    },
    {
      "inputs": [
        {
          "internalType": "uint256",
          "name": "tokenId",
          "type": "uint256"
        }
      ],
      "name": "tokenURI",
      "outputs": [
        {
          "internalType": "string",
          "name": "",
          "type": "string"
        }
      ],
      "stateMutability": "view",
      "type": "function"
    },
    {
      "inputs": [],
      "name": "totalSupply",
      "outputs": [
        {
          "internalType": "uint256",
          "name": "",
          "type": "uint256"
        }
      ],
      "stateMutability": "view",
      "type": "function"
    },
    {
      "inputs": [
        {
          "internalType": "address",
          "name": "from",
          "type": "address"
        },
        {
          "internalType": "address",
          "name": "to",
          "type": "address"
        },
        {
          "internalType": "uint256",
          "name": "tokenId",
          "type": "uint256"
        }
      ],
      "name": "transferFrom",
      "outputs": [],
      "stateMutability": "nonpayable",
      "type": "function"
    },
    {
      "inputs": [
        {
          "internalType": "address",
          "name": "newOwner",
          "type": "address"
        }
      ],
      "name": "transferOwnership",
      "outputs": [],
      "stateMutability": "nonpayable",
      "type": "function"
    },
    {
      "inputs": [
        {
          "internalType": "uint256",
          "name": "number",
          "type": "uint256"
        }
      ],
      "name": "uintToHexString",
      "outputs": [
        {
          "internalType": "string",
          "name": "",
          "type": "string"
        }
      ],
      "stateMutability": "pure",
      "type": "function"
    }
  ],
  "transactionHash": "0x019772b54e502abbb65e109f6d35db08706f739aee3644462bb5a98b178ba416",
  "args": [],
  "solcInputHash": "21b3f8cc9a43a371eed316846aa32524",
  "bytecode": "0x60a06040819052600060808190526200001b91600b916200011c565b503480156200002957600080fd5b50604080518082018252601a81527f54686520436f6c6f72732028746865636f6c6f72732e61727429000000000000602080830191825283518085019094526006845265434f4c4f525360d01b9084015281519192916200008d916000916200011c565b508051620000a39060019060208401906200011c565b505050620000c0620000ba620000c660201b60201c565b620000ca565b620001ff565b3390565b600a80546001600160a01b038381166001600160a01b0319831681179093556040519116919082907f8be0079c531659141344cd1fd0a4f28419497f9722a3daafe3b4186f6b6457e090600090a35050565b8280546200012a90620001c2565b90600052602060002090601f0160209004810192826200014e576000855562000199565b82601f106200016957805160ff191683800117855562000199565b8280016001018555821562000199579182015b82811115620001995782518255916020019190600101906200017c565b50620001a7929150620001ab565b5090565b5b80821115620001a75760008155600101620001ac565b600181811c90821680620001d757607f821691505b60208210811415620001f957634e487b7160e01b600052602260045260246000fd5b50919050565b612e24806200020f6000396000f3fe608060405234801561001057600080fd5b506004361061018b5760003560e01c806301ffc9a71461019057806306fdde03146101b8578063081812fc146101cd578063095ea7b3146101f8578063109695231461020d57806318160ddd14610220578063232f06b71461023257806323b872dd146102455780632f745c591461025857806342842e0e1461026b578063469a6ed51461027e5780634f6ccce7146102b6578063521b8057146102c957806360316801146102dc5780636352211e146102ef578063696a82b71461030257806370a0823114610325578063715018a6146103385780637a8013c3146103405780637cee7d37146103535780637eccd5941461036657806382afe39f1461036f5780638da5cb5b1461038257806395d89b411461038a578063a22cb46514610392578063b88d4fde146103a5578063c7ab2dbc146103b8578063c87b56dd146103cb578063ce02f823146103de578063e01c8fa1146103f1578063e985e9c514610404578063f2fde38b14610417578063ff1b65561461042a575b600080fd5b6101a361019e366004612339565b610432565b60405190151581526020015b60405180910390f35b6101c061045d565b6040516101af9190612b53565b6101e06101db3660046123b6565b6104ef565b6040516001600160a01b0390911681526020016101af565b61020b610206366004612310565b61057c565b005b61020b61021b366004612371565b61068d565b6008545b6040519081526020016101af565b6101c06102403660046123b6565b6106d3565b61020b610253366004612223565b6108a1565b610224610266366004612310565b6108d2565b61020b610279366004612223565b610968565b6102a161028c3660046123b6565b6000908152600c602052604090205460ff1690565b60405163ffffffff90911681526020016101af565b6102246102c43660046123b6565b610983565b6101c06102d73660046123b6565b610a24565b6101c06102ea3660046123b6565b610a9f565b6101e06102fd3660046123b6565b610b13565b6101a36103103660046123ce565b600d6020526000908152604090205460ff1681565b6102246103333660046121d0565b610b8a565b61020b610c11565b6102a161034e3660046123b6565b610c4c565b61020b6103613660046123b6565b610c64565b6102246110dd81565b6102a161037d3660046123b6565b610d1e565b6101e0610d36565b6101c0610d45565b61020b6103a03660046122d6565b610d54565b61020b6103b336600461225e565b610d5f565b6101c06103c63660046123b6565b610d97565b6101c06103d93660046123b6565b610dce565b6101c06103ec3660046123b6565b610ed6565b6101c06103ff3660046123b6565b610f1d565b6101a36104123660046121f1565b610f6c565b61020b6104253660046121d0565b610f9a565b6101c061103a565b60006001600160e01b0319821663780e9d6360e01b14806104575750610457826110c8565b92915050565b60606000805461046c90612ccc565b80601f016020809104026020016040519081016040528092919081815260200182805461049890612ccc565b80156104e55780601f106104ba576101008083540402835291602001916104e5565b820191906000526020600020905b8154815290600101906020018083116104c857829003601f168201915b5050505050905090565b60006104fa82611118565b6105605760405162461bcd60e51b815260206004820152602c60248201527f4552433732313a20617070726f76656420717565727920666f72206e6f6e657860448201526b34b9ba32b73a103a37b5b2b760a11b60648201526084015b60405180910390fd5b506000908152600460205260409020546001600160a01b031690565b600061058782610b13565b9050806001600160a01b0316836001600160a01b031614156105f55760405162461bcd60e51b815260206004820152602160248201527f4552433732313a20617070726f76616c20746f2063757272656e74206f776e656044820152603960f91b6064820152608401610557565b336001600160a01b038216148061061157506106118133610f6c565b61067e5760405162461bcd60e51b815260206004820152603860248201527f4552433732313a20617070726f76652063616c6c6572206973206e6f74206f776044820152771b995c881b9bdc88185c1c1c9bdd995908199bdc88185b1b60421b6064820152608401610557565b6106888383611135565b505050565b33610696610d36565b6001600160a01b0316146106bc5760405162461bcd60e51b815260040161055790612bb8565b80516106cf90600b9060208401906120a6565b5050565b604080518082018252601081526f181899199a1a9b1b9c1cb0b131b232b360811b60208201528151600680825281840190935260609284929160009160208201818036833701905050905060005b6003811015610898578260048561073984601d612c3e565b6020811061075757634e487b7160e01b600052603260045260246000fd5b1a60f81b6001600160f81b031916901c60f81c60ff168151811061078b57634e487b7160e01b600052603260045260246000fd5b01602001516001600160f81b031916826107a6836002612c6a565b815181106107c457634e487b7160e01b600052603260045260246000fd5b60200101906001600160f81b031916908160001a90535082846107e883601d612c3e565b6020811061080657634e487b7160e01b600052603260045260246000fd5b825191901a600f1690811061082b57634e487b7160e01b600052603260045260246000fd5b01602001516001600160f81b03191682610846836002612c6a565b610851906001612c3e565b8151811061086f57634e487b7160e01b600052603260045260246000fd5b60200101906001600160f81b031916908160001a9053508061089081612d07565b915050610721565b50949350505050565b6108ab33826111a3565b6108c75760405162461bcd60e51b815260040161055790612bed565b610688838383611265565b60006108dd83610b8a565b821061093f5760405162461bcd60e51b815260206004820152602b60248201527f455243373231456e756d657261626c653a206f776e657220696e646578206f7560448201526a74206f6620626f756e647360a81b6064820152608401610557565b506001600160a01b03919091166000908152600660209081526040808320938352929052205490565b61068883838360405180602001604052806000815250610d5f565b600061098e60085490565b82106109f15760405162461bcd60e51b815260206004820152602c60248201527f455243373231456e756d657261626c653a20676c6f62616c20696e646578206f60448201526b7574206f6620626f756e647360a01b6064820152608401610557565b60088281548110610a1257634e487b7160e01b600052603260045260246000fd5b90600052602060002001549050919050565b60606000610a3f610a3484610c4c565b63ffffffff166113fe565b90506000610a4f610a3485610d1e565b90506000610a6f610a34866000908152600c602052604090205460ff1690565b9050828282604051602001610a86939291906125e4565b6040516020818303038152906040529350505050919050565b6000818152600c602052604081205460609163ffffffff90911690610ac3826106d3565b90506000610ad8610ad383611517565b611540565b905080610aec610ae784611517565b6116b3565b610af687856118ac565b610b0086866118e2565b604051602001610a869493929190612705565b6000818152600260205260408120546001600160a01b0316806104575760405162461bcd60e51b815260206004820152602960248201527f4552433732313a206f776e657220717565727920666f72206e6f6e657869737460448201526832b73a103a37b5b2b760b91b6064820152608401610557565b60006001600160a01b038216610bf55760405162461bcd60e51b815260206004820152602a60248201527f4552433732313a2062616c616e636520717565727920666f7220746865207a65604482015269726f206164647265737360b01b6064820152608401610557565b506001600160a01b031660009081526003602052604090205490565b33610c1a610d36565b6001600160a01b031614610c405760405162461bcd60e51b815260040161055790612bb8565b610c4a6000611978565b565b6000908152600c602052604090205460101c60ff1690565b6110dd81610c7160085490565b610c7b9190612c3e565b1115610cdc5760405162461bcd60e51b815260206004820152602a60248201527f507572636861736520776f756c6420657863656564206d617820737570706c79604482015269206f6620436f6c6f727360b01b6064820152608401610557565b6000805b828110156106885760085491506110dd821015610d0c57610d0133836119ca565b610d0a826119e4565b505b80610d1681612d07565b915050610ce0565b6000908152600c602052604090205460081c60ff1690565b600a546001600160a01b031690565b60606001805461046c90612ccc565b6106cf338383611a8e565b610d6933836111a3565b610d855760405162461bcd60e51b815260040161055790612bed565b610d9184848484611b59565b50505050565b6000818152600c602052604081205460609163ffffffff90911690610dbb826106d3565b9050610dc681611517565b949350505050565b6000818152600c602052604090205460609063ffffffff16610e4a5760405162461bcd60e51b815260206004820152602f60248201527f4552433732314d657461646174613a2055524920717565727920666f72206e6f60448201526e3732bc34b9ba32b73a103a37b5b2b760891b6064820152608401610557565b6000828152600c602052604081205463ffffffff1690610e69826106d3565b90506000610e79610ad383611517565b9050610ec681610e8b610ae785611517565b610e9588866118ac565b610e9f87876118e2565b604051602001610eb29493929190612803565b604051602081830303815290604052611540565b604051602001610a869190612906565b6000818152600c602052604081205460609163ffffffff90911690610efa826106d3565b90506000610f0a610ad383611517565b905080604051602001610a86919061294b565b6000818152600c602052604081205460609163ffffffff90911690610f41826106d3565b905080604051602001610f5491906128dd565b60405160208183030381529060405292505050919050565b6001600160a01b03918216600090815260056020908152604080832093909416825291909152205460ff1690565b33610fa3610d36565b6001600160a01b031614610fc95760405162461bcd60e51b815260040161055790612bb8565b6001600160a01b03811661102e5760405162461bcd60e51b815260206004820152602660248201527f4f776e61626c653a206e6577206f776e657220697320746865207a65726f206160448201526564647265737360d01b6064820152608401610557565b61103781611978565b50565b600b805461104790612ccc565b80601f016020809104026020016040519081016040528092919081815260200182805461107390612ccc565b80156110c05780601f10611095576101008083540402835291602001916110c0565b820191906000526020600020905b8154815290600101906020018083116110a357829003601f168201915b505050505081565b60006001600160e01b031982166380ac58cd60e01b14806110f957506001600160e01b03198216635b5e139f60e01b145b8061045757506301ffc9a760e01b6001600160e01b0319831614610457565b6000908152600260205260409020546001600160a01b0316151590565b600081815260046020526040902080546001600160a01b0319166001600160a01b038416908117909155819061116a82610b13565b6001600160a01b03167f8c5be1e5ebec7d5bd14f71427d1e84f3dd0314c0f7b2291e5b200ac8c7c3b92560405160405180910390a45050565b60006111ae82611118565b61120f5760405162461bcd60e51b815260206004820152602c60248201527f4552433732313a206f70657261746f7220717565727920666f72206e6f6e657860448201526b34b9ba32b73a103a37b5b2b760a11b6064820152608401610557565b600061121a83610b13565b9050806001600160a01b0316846001600160a01b031614806112555750836001600160a01b031661124a846104ef565b6001600160a01b0316145b80610dc65750610dc68185610f6c565b826001600160a01b031661127882610b13565b6001600160a01b0316146112e05760405162461bcd60e51b815260206004820152602960248201527f4552433732313a207472616e73666572206f6620746f6b656e2074686174206960448201526839903737ba1037bbb760b91b6064820152608401610557565b6001600160a01b0382166113425760405162461bcd60e51b8152602060048201526024808201527f4552433732313a207472616e7366657220746f20746865207a65726f206164646044820152637265737360e01b6064820152608401610557565b61134d838383611b8c565b611358600082611135565b6001600160a01b0383166000908152600360205260408120805460019290611381908490612c89565b90915550506001600160a01b03821660009081526003602052604081208054600192906113af908490612c3e565b909155505060008181526002602052604080822080546001600160a01b0319166001600160a01b038681169182179092559151849391871691600080516020612dcf83398151915291a4505050565b6060816114225750506040805180820190915260018152600360fc1b602082015290565b8160005b811561144c578061143681612d07565b91506114459050600a83612c56565b9150611426565b6000816001600160401b0381111561147457634e487b7160e01b600052604160045260246000fd5b6040519080825280601f01601f19166020018201604052801561149e576020820181803683370190505b5090505b8415610dc6576114b3600183612c89565b91506114c0600a86612d22565b6114cb906030612c3e565b60f81b8183815181106114ee57634e487b7160e01b600052603260045260246000fd5b60200101906001600160f81b031916908160001a905350611510600a86612c56565b94506114a2565b60608160405160200161152a919061265c565b6040516020818303038152906040529050919050565b606081516000141561156057505060408051602081019091526000815290565b6000604051806060016040528060408152602001612d8f604091399050600060038451600261158f9190612c3e565b6115999190612c56565b6115a4906004612c6a565b905060006115b3826020612c3e565b6001600160401b038111156115d857634e487b7160e01b600052604160045260246000fd5b6040519080825280601f01601f191660200182016040528015611602576020820181803683370190505b509050818152600183018586518101602084015b8183101561166e576003830192508251603f8160121c168501518253600182019150603f81600c1c168501518253600182019150603f8160061c168501518253600182019150603f8116850151825350600101611616565b6003895106600181146116885760028114611699576116a5565b613d3d60f01b6001198301526116a5565b603d60f81b6000198301525b509398975050505050505050565b6060816000805b825181101561171e578281815181106116e357634e487b7160e01b600052603260045260246000fd5b6020910101516001600160f81b031916601160f91b141561170c578161170881612d07565b9250505b8061171681612d07565b9150506116ba565b5080156118a45760008183516117349190612c3e565b6001600160401b0381111561175957634e487b7160e01b600052604160045260246000fd5b6040519080825280601f01601f191660200182016040528015611783576020820181803683370190505b5090506000805b8451811015611899578481815181106117b357634e487b7160e01b600052603260045260246000fd5b6020910101516001600160f81b031916601160f91b141561181657601760fa1b83836117de81612d07565b9450815181106117fe57634e487b7160e01b600052603260045260246000fd5b60200101906001600160f81b031916908160001a9053505b84818151811061183657634e487b7160e01b600052603260045260246000fd5b01602001516001600160f81b031916838361185081612d07565b94508151811061187057634e487b7160e01b600052603260045260246000fd5b60200101906001600160f81b031916908160001a9053508061189181612d07565b91505061178a565b509095945050505050565b509192915050565b6060816118b8846113fe565b836040516020016118cb93929190612449565b604051602081830303815290604052905092915050565b606060006118f660ff601086901c166113fe565b9050600061190a60ff600887901c166113fe565b9050600061191a60ff87166113fe565b90506000838383604051602001611933939291906125e4565b6040516020818303038152906040529050858185858560405160200161195d95949392919061298f565b60405160208183030381529060405294505050505092915050565b600a80546001600160a01b038381166001600160a01b0319831681179093556040519116919082907f8be0079c531659141344cd1fd0a4f28419497f9722a3daafe3b4186f6b6457e090600090a35050565b6106cf828260405180602001604052806000815250611c44565b60008062ffffff6119f3611c77565b6119fd9190612d22565b90505b63ffffffff81166000908152600d602052604090205460ff1615611a4d5762ffffff611a2c8442612c6a565b611a3c9063ffffffff8416612c3e565b611a469190612d22565b9050611a00565b63ffffffff81166000818152600d60209081526040808320805460ff19166001179055958252600c905293909320805463ffffffff19169093179092555090565b816001600160a01b0316836001600160a01b03161415611aec5760405162461bcd60e51b815260206004820152601960248201527822a9219b99189d1030b8383937bb32903a379031b0b63632b960391b6044820152606401610557565b6001600160a01b03838116600081815260056020908152604080832094871680845294825291829020805460ff191686151590811790915591519182527f17307eab39ab6107e8899845ad3d59bd9653f200f220920489ca2b5937696c31910160405180910390a3505050565b611b64848484611265565b611b7084848484611cb3565b610d915760405162461bcd60e51b815260040161055790612b66565b6001600160a01b038316611be757611be281600880546000838152600960205260408120829055600182018355919091527ff3f7a9fe364faab93b216da50a3214154f22a0a2b415b23a84c8169e8b636ee30155565b611c0a565b816001600160a01b0316836001600160a01b031614611c0a57611c0a8382611dc0565b6001600160a01b038216611c215761068881611e5d565b826001600160a01b0316826001600160a01b031614610688576106888282611f36565b611c4e8383611f7a565b611c5b6000848484611cb3565b6106885760405162461bcd60e51b815260040161055790612b66565b6000611c834442612c3e565b604051602001611c9591815260200190565b6040516020818303038152906040528051906020012060001c905090565b60006001600160a01b0384163b15611db557604051630a85bd0160e11b81526001600160a01b0385169063150b7a0290611cf7903390899088908890600401612b20565b602060405180830381600087803b158015611d1157600080fd5b505af1925050508015611d41575060408051601f3d908101601f19168201909252611d3e91810190612355565b60015b611d9b573d808015611d6f576040519150601f19603f3d011682016040523d82523d6000602084013e611d74565b606091505b508051611d935760405162461bcd60e51b815260040161055790612b66565b805181602001fd5b6001600160e01b031916630a85bd0160e11b149050610dc6565b506001949350505050565b60006001611dcd84610b8a565b611dd79190612c89565b600083815260076020526040902054909150808214611e2a576001600160a01b03841660009081526006602090815260408083208584528252808320548484528184208190558352600790915290208190555b5060009182526007602090815260408084208490556001600160a01b039094168352600681528383209183525290812055565b600854600090611e6f90600190612c89565b60008381526009602052604081205460088054939450909284908110611ea557634e487b7160e01b600052603260045260246000fd5b906000526020600020015490508060088381548110611ed457634e487b7160e01b600052603260045260246000fd5b6000918252602080832090910192909255828152600990915260408082208490558582528120556008805480611f1a57634e487b7160e01b600052603160045260246000fd5b6001900381819060005260206000200160009055905550505050565b6000611f4183610b8a565b6001600160a01b039093166000908152600660209081526040808320868452825280832085905593825260079052919091209190915550565b6001600160a01b038216611fd05760405162461bcd60e51b815260206004820181905260248201527f4552433732313a206d696e7420746f20746865207a65726f20616464726573736044820152606401610557565b611fd981611118565b156120255760405162461bcd60e51b815260206004820152601c60248201527b115490cdcc8c4e881d1bdad95b88185b1c9958591e481b5a5b9d195960221b6044820152606401610557565b61203160008383611b8c565b6001600160a01b038216600090815260036020526040812080546001929061205a908490612c3e565b909155505060008181526002602052604080822080546001600160a01b0319166001600160a01b0386169081179091559051839290600080516020612dcf833981519152908290a45050565b8280546120b290612ccc565b90600052602060002090601f0160209004810192826120d4576000855561211a565b82601f106120ed57805160ff191683800117855561211a565b8280016001018555821561211a579182015b8281111561211a5782518255916020019190600101906120ff565b5061212692915061212a565b5090565b5b80821115612126576000815560010161212b565b60006001600160401b038084111561215957612159612d62565b604051601f8501601f19908116603f0116810190828211818310171561218157612181612d62565b8160405280935085815286868601111561219a57600080fd5b858560208301376000602087830101525050509392505050565b80356001600160a01b03811681146121cb57600080fd5b919050565b6000602082840312156121e1578081fd5b6121ea826121b4565b9392505050565b60008060408385031215612203578081fd5b61220c836121b4565b915061221a602084016121b4565b90509250929050565b600080600060608486031215612237578081fd5b612240846121b4565b925061224e602085016121b4565b9150604084013590509250925092565b60008060008060808587031215612273578081fd5b61227c856121b4565b935061228a602086016121b4565b92506040850135915060608501356001600160401b038111156122ab578182fd5b8501601f810187136122bb578182fd5b6122ca8782356020840161213f565b91505092959194509250565b600080604083850312156122e8578182fd5b6122f1836121b4565b915060208301358015158114612305578182fd5b809150509250929050565b60008060408385031215612322578182fd5b61232b836121b4565b946020939093013593505050565b60006020828403121561234a578081fd5b81356121ea81612d78565b600060208284031215612366578081fd5b81516121ea81612d78565b600060208284031215612382578081fd5b81356001600160401b03811115612397578182fd5b8201601f810184136123a7578182fd5b610dc68482356020840161213f565b6000602082840312156123c7578081fd5b5035919050565b6000602082840312156123df578081fd5b813563ffffffff811681146121ea578182fd5b6000815180845261240a816020860160208601612ca0565b601f01601f19169290920160200192915050565b60008151612430818560208601612ca0565b9290920192915050565b62089f4b60ea1b815260030190565b7f2265787465726e616c5f75726c223a2268747470733a2f2f746865636f6c6f728152661ccb985c9d088b60ca1b60208201527f226465736372697074696f6e223a2254686520436f6c6f72732061726520612060278201527f736574206f6620382c3838382069636f6e6963207368616465732067656e657260478201527f6174656420616e642073746f72656420656e746972656c79206f6e2d6368616960678201527f6e20746f20626520757365642061732061207072696d697469766520616e642060878201527f666f7220636f6c6f72206669656c642076696265732e207e204120436f6c6f7260a78201526e1034b9902337b932bb32b91071444f60891b60c7820152675c6e4865783a202360c01b60d6820152600084516125788160de850160208901612ca0565b6125da6125b16125d46125bf6125b16125ab60de878a01016e5c6e5c6e546f6b656e2069643a202360881b8152600f0190565b8a61241e565b61088b60f21b815260020190565b68226e616d65223a222360b81b815260090190565b8661241e565b9695505050505050565b630e4cec4560e31b815260008451612603816004850160208901612ca0565b8083019050600b60fa1b8060048301528551612626816005850160208a01612ca0565b60059201918201528351612641816006840160208801612ca0565b602960f81b6006929091019182015260070195945050505050565b7f3c7376672077696474683d2236393022206865696768743d223639302220786d81527f6c6e733d22687474703a2f2f7777772e77332e6f72672f323030302f73766722602082015279207374796c653d226261636b67726f756e642d636f6c6f723a2360301b6040820152600082516126dd81605a850160208701612ca0565b61111f60f11b605a939091019283015250651e17b9bb339f60d11b605c820152606201919050565b743230ba309d30b8383634b1b0ba34b7b717b539b7b760591b8152607b60f81b6015820152681134b6b0b3b2911d1160b91b60168201527919185d184e9a5b5859d94bdcdd99cade1b5b0ed8985cd94d8d0b60321b601f8201528451600090612775816039850160208a01612ca0565b61088b60f21b60399184019182018190526d1134b6b0b3b2afb230ba30911d1160911b603b83015286516127b0816049850160208b01612ca0565b604992019182015284516127cb81604b840160208901612ca0565b84519101906127e181604b840160208801612ca0565b6127f7604b82840101607d60f81b815260010190565b98975050505050505050565b607b60f81b8152681134b6b0b3b2911d1160b91b60018201527919185d184e9a5b5859d94bdcdd99cade1b5b0ed8985cd94d8d0b60321b600a8201528451600090612855816024850160208a01612ca0565b61088b60f21b60249184019182018190526d1134b6b0b3b2afb230ba30911d1160911b60268301528651612890816034850160208b01612ca0565b603492019182015284516128ab816036840160208901612ca0565b84519101906128c1816036840160208801612ca0565b607d60f81b603692909101918201526037019695505050505050565b602360f81b8152600082516128f9816001850160208701612ca0565b9190910160010192915050565b7f646174613a6170706c69636174696f6e2f6a736f6e3b6261736536342c00000081526000825161293e81601d850160208701612ca0565b91909101601d0192915050565b7b19185d184e985c1c1b1a58d85d1a5bdb8bda9cdbdb8ed8985cd94d8d60221b81526000825161298281601c850160208701612ca0565b91909101601c0192915050565b6d2261747472696275746573223a5b60901b81527f7b2274726169745f74797065223a2248657820636f6465222c2276616c756522600e820152623a222360e81b602e82015285516000906129eb816031850160208b01612ca0565b7f227d2c7b2274726169745f74797065223a22524742222c2276616c7565223a226031918401918201528651612a28816051840160208b01612ca0565b62089f4b60ea1b605192909101918201527f7b2274726169745f74797065223a22526564222c2276616c7565223a2200000060548201528551612a72816071840160208a01612ca0565b612b13612b06612af8612af2612ac9612ac4612abe612a956071898b010161243a565b7f7b2274726169745f74797065223a22477265656e222c2276616c7565223a22008152601f0190565b8c61241e565b61243a565b7f7b2274726169745f74797065223a22426c7565222c2276616c7565223a2200008152601e0190565b8861241e565b61227d60f01b815260020190565b605d60f81b815260010190565b9998505050505050505050565b6001600160a01b03858116825284166020820152604081018390526080606082018190526000906125da908301846123f2565b6020815260006121ea60208301846123f2565b60208082526032908201527f4552433732313a207472616e7366657220746f206e6f6e20455243373231526560408201527131b2b4bb32b91034b6b83632b6b2b73a32b960711b606082015260800190565b6020808252818101527f4f776e61626c653a2063616c6c6572206973206e6f7420746865206f776e6572604082015260600190565b60208082526031908201527f4552433732313a207472616e736665722063616c6c6572206973206e6f74206f6040820152701ddb995c881b9bdc88185c1c1c9bdd9959607a1b606082015260800190565b60008219821115612c5157612c51612d36565b500190565b600082612c6557612c65612d4c565b500490565b6000816000190483118215151615612c8457612c84612d36565b500290565b600082821015612c9b57612c9b612d36565b500390565b60005b83811015612cbb578181015183820152602001612ca3565b83811115610d915750506000910152565b600181811c90821680612ce057607f821691505b60208210811415612d0157634e487b7160e01b600052602260045260246000fd5b50919050565b6000600019821415612d1b57612d1b612d36565b5060010190565b600082612d3157612d31612d4c565b500690565b634e487b7160e01b600052601160045260246000fd5b634e487b7160e01b600052601260045260246000fd5b634e487b7160e01b600052604160045260246000fd5b6001600160e01b03198116811461103757600080fdfe4142434445464748494a4b4c4d4e4f505152535455565758595a6162636465666768696a6b6c6d6e6f707172737475767778797a303132333435363738392b2fddf252ad1be2c89b69c2b068fc378daa952ba7f163c4a11628f55a4df523b3efa2646970667358221220fd4e5416b1bc024e52fbba7bcf9e19464de3acc6f391a2484552bf998ee3db3064736f6c63430008040033",
  "devdoc": {
    "details": "Extends ERC721 Non-Fungible Token Standard basic implementation",
    "kind": "dev",
    "methods": {
      "approve(address,uint256)": {
        "details": "See {IERC721-approve}."
      },
      "balanceOf(address)": {
        "details": "See {IERC721-balanceOf}."
      },
      "getApproved(uint256)": {
        "details": "See {IERC721-getApproved}."
      },
      "isApprovedForAll(address,address)": {
        "details": "See {IERC721-isApprovedForAll}."
      },
      "name()": {
        "details": "See {IERC721Metadata-name}."
      },
      "owner()": {
        "details": "Returns the address of the current owner."
      },
      "ownerOf(uint256)": {
        "details": "See {IERC721-ownerOf}."
      },
      "renounceOwnership()": {
        "details": "Leaves the contract without owner. It will not be possible to call `onlyOwner` functions anymore. Can only be called by the current owner. NOTE: Renouncing ownership will leave the contract without an owner, thereby removing any functionality that is only available to the owner."
      },
      "safeTransferFrom(address,address,uint256)": {
        "details": "See {IERC721-safeTransferFrom}."
      },
      "safeTransferFrom(address,address,uint256,bytes)": {
        "details": "See {IERC721-safeTransferFrom}."
      },
      "setApprovalForAll(address,bool)": {
        "details": "See {IERC721-setApprovalForAll}."
      },
      "supportsInterface(bytes4)": {
        "details": "See {IERC165-supportsInterface}."
      },
      "symbol()": {
        "details": "See {IERC721Metadata-symbol}."
      },
      "tokenByIndex(uint256)": {
        "details": "See {IERC721Enumerable-tokenByIndex}."
      },
      "tokenOfOwnerByIndex(address,uint256)": {
        "details": "See {IERC721Enumerable-tokenOfOwnerByIndex}."
      },
      "tokenURI(uint256)": {
        "details": "See {IERC721Metadata-tokenURI}."
      },
      "totalSupply()": {
        "details": "See {IERC721Enumerable-totalSupply}."
      },
      "transferFrom(address,address,uint256)": {
        "details": "See {IERC721-transferFrom}."
      },
      "transferOwnership(address)": {
        "details": "Transfers ownership of the contract to a new account (`newOwner`). Can only be called by the current owner."
      }
    },
    "title": "TheColors contract",
    "version": 1
  },
  "userdoc": {
    "kind": "user",
    "methods": {
      "mintNextColors(uint256)": {
        "notice": "Mints The Colors to The Colors Legacy holders"
      }
    },
    "version": 1
  },
  "storageLayout": {
    "storage": [
      {
        "astId": 262,
        "contract": "contracts/legacy_colors/TheColors.sol:TheColors",
        "label": "_name",
        "offset": 0,
        "slot": "0",
        "type": "t_string_storage"
      },
      {
        "astId": 264,
        "contract": "contracts/legacy_colors/TheColors.sol:TheColors",
        "label": "_symbol",
        "offset": 0,
        "slot": "1",
        "type": "t_string_storage"
      },
      {
        "astId": 268,
        "contract": "contracts/legacy_colors/TheColors.sol:TheColors",
        "label": "_owners",
        "offset": 0,
        "slot": "2",
        "type": "t_mapping(t_uint256,t_address)"
      },
      {
        "astId": 272,
        "contract": "contracts/legacy_colors/TheColors.sol:TheColors",
        "label": "_balances",
        "offset": 0,
        "slot": "3",
        "type": "t_mapping(t_address,t_uint256)"
      },
      {
        "astId": 276,
        "contract": "contracts/legacy_colors/TheColors.sol:TheColors",
        "label": "_tokenApprovals",
        "offset": 0,
        "slot": "4",
        "type": "t_mapping(t_uint256,t_address)"
      },
      {
        "astId": 282,
        "contract": "contracts/legacy_colors/TheColors.sol:TheColors",
        "label": "_operatorApprovals",
        "offset": 0,
        "slot": "5",
        "type": "t_mapping(t_address,t_mapping(t_address,t_bool))"
      },
      {
        "astId": 1216,
        "contract": "contracts/legacy_colors/TheColors.sol:TheColors",
        "label": "_ownedTokens",
        "offset": 0,
        "slot": "6",
        "type": "t_mapping(t_address,t_mapping(t_uint256,t_uint256))"
      },
      {
        "astId": 1220,
        "contract": "contracts/legacy_colors/TheColors.sol:TheColors",
        "label": "_ownedTokensIndex",
        "offset": 0,
        "slot": "7",
        "type": "t_mapping(t_uint256,t_uint256)"
      },
      {
        "astId": 1223,
        "contract": "contracts/legacy_colors/TheColors.sol:TheColors",
        "label": "_allTokens",
        "offset": 0,
        "slot": "8",
        "type": "t_array(t_uint256)dyn_storage"
      },
      {
        "astId": 1227,
        "contract": "contracts/legacy_colors/TheColors.sol:TheColors",
        "label": "_allTokensIndex",
        "offset": 0,
        "slot": "9",
        "type": "t_mapping(t_uint256,t_uint256)"
      },
      {
        "astId": 7,
        "contract": "contracts/legacy_colors/TheColors.sol:TheColors",
        "label": "_owner",
        "offset": 0,
        "slot": "10",
        "type": "t_address"
      },
      {
        "astId": 4210,
        "contract": "contracts/legacy_colors/TheColors.sol:TheColors",
        "label": "PROVENANCE_HASH",
        "offset": 0,
        "slot": "11",
        "type": "t_string_storage"
      },
      {
        "astId": 4217,
        "contract": "contracts/legacy_colors/TheColors.sol:TheColors",
        "label": "_hexColors",
        "offset": 0,
        "slot": "12",
        "type": "t_mapping(t_uint256,t_uint32)"
      },
      {
        "astId": 4221,
        "contract": "contracts/legacy_colors/TheColors.sol:TheColors",
        "label": "existingHexColors",
        "offset": 0,
        "slot": "13",
        "type": "t_mapping(t_uint32,t_bool)"
      }
    ],
    "types": {
      "t_address": {
        "encoding": "inplace",
        "label": "address",
        "numberOfBytes": "20"
      },
      "t_array(t_uint256)dyn_storage": {
        "base": "t_uint256",
        "encoding": "dynamic_array",
        "label": "uint256[]",
        "numberOfBytes": "32"
      },
      "t_bool": {
        "encoding": "inplace",
        "label": "bool",
        "numberOfBytes": "1"
      },
      "t_mapping(t_address,t_bool)": {
        "encoding": "mapping",
        "key": "t_address",
        "label": "mapping(address => bool)",
        "numberOfBytes": "32",
        "value": "t_bool"
      },
      "t_mapping(t_address,t_mapping(t_address,t_bool))": {
        "encoding": "mapping",
        "key": "t_address",
        "label": "mapping(address => mapping(address => bool))",
        "numberOfBytes": "32",
        "value": "t_mapping(t_address,t_bool)"
      },
      "t_mapping(t_address,t_mapping(t_uint256,t_uint256))": {
        "encoding": "mapping",
        "key": "t_address",
        "label": "mapping(address => mapping(uint256 => uint256))",
        "numberOfBytes": "32",
        "value": "t_mapping(t_uint256,t_uint256)"
      },
      "t_mapping(t_address,t_uint256)": {
        "encoding": "mapping",
        "key": "t_address",
        "label": "mapping(address => uint256)",
        "numberOfBytes": "32",
        "value": "t_uint256"
      },
      "t_mapping(t_uint256,t_address)": {
        "encoding": "mapping",
        "key": "t_uint256",
        "label": "mapping(uint256 => address)",
        "numberOfBytes": "32",
        "value": "t_address"
      },
      "t_mapping(t_uint256,t_uint256)": {
        "encoding": "mapping",
        "key": "t_uint256",
        "label": "mapping(uint256 => uint256)",
        "numberOfBytes": "32",
        "value": "t_uint256"
      },
      "t_mapping(t_uint256,t_uint32)": {
        "encoding": "mapping",
        "key": "t_uint256",
        "label": "mapping(uint256 => uint32)",
        "numberOfBytes": "32",
        "value": "t_uint32"
      },
      "t_mapping(t_uint32,t_bool)": {
        "encoding": "mapping",
        "key": "t_uint32",
        "label": "mapping(uint32 => bool)",
        "numberOfBytes": "32",
        "value": "t_bool"
      },
      "t_string_storage": {
        "encoding": "bytes",
        "label": "string",
        "numberOfBytes": "32"
      },
      "t_uint256": {
        "encoding": "inplace",
        "label": "uint256",
        "numberOfBytes": "32"
      },
      "t_uint32": {
        "encoding": "inplace",
        "label": "uint32",
        "numberOfBytes": "4"
      }
    }
  }
}